{
  "contracts/GovernanceV2.sol": {
    "GovernanceV2": {
      "abi": [
        {
          "inputs": [
            {
              "internalType": "address",
              "name": "_governanceToken",
              "type": "address"
            },
            {
              "internalType": "address",
              "name": "_stake",
              "type": "address"
            },
            {
              "internalType": "address",
              "name": "_burn",
              "type": "address"
            }
          ],
          "stateMutability": "nonpayable",
          "type": "constructor"
        },
        {
          "anonymous": false,
          "inputs": [
            {
              "indexed": false,
              "internalType": "uint256",
              "name": "proposalID",
              "type": "uint256"
            },
            {
              "indexed": false,
              "internalType": "uint256",
              "name": "status",
              "type": "uint256"
            }
          ],
          "name": "ActiveProposal",
          "type": "event"
        },
        {
          "anonymous": false,
          "inputs": [
            {
              "indexed": false,
              "internalType": "uint256",
              "name": "amount",
              "type": "uint256"
            },
            {
              "indexed": false,
              "internalType": "uint256",
              "name": "blockTime",
              "type": "uint256"
            }
          ],
          "name": "EmergencyWithdraw",
          "type": "event"
        },
        {
          "anonymous": false,
          "inputs": [
            {
              "indexed": true,
              "internalType": "address",
              "name": "previousOwner",
              "type": "address"
            },
            {
              "indexed": true,
              "internalType": "address",
              "name": "newOwner",
              "type": "address"
            }
          ],
          "name": "OwnershipTransferred",
          "type": "event"
        },
        {
          "anonymous": false,
          "inputs": [
            {
              "indexed": false,
              "internalType": "address",
              "name": "admin",
              "type": "address"
            },
            {
              "indexed": false,
              "internalType": "uint256",
              "name": "blockTime",
              "type": "uint256"
            },
            {
              "indexed": false,
              "internalType": "bool",
              "name": "status",
              "type": "bool"
            }
          ],
          "name": "newAdmin",
          "type": "event"
        },
        {
          "anonymous": false,
          "inputs": [
            {
              "indexed": false,
              "internalType": "address",
              "name": "owner",
              "type": "address"
            },
            {
              "indexed": false,
              "internalType": "uint256",
              "name": "proposalID",
              "type": "uint256"
            },
            {
              "indexed": false,
              "internalType": "uint256",
              "name": "amount",
              "type": "uint256"
            },
            {
              "indexed": false,
              "internalType": "uint256",
              "name": "blockTime",
              "type": "uint256"
            }
          ],
          "name": "newDeposit",
          "type": "event"
        },
        {
          "anonymous": false,
          "inputs": [
            {
              "indexed": false,
              "internalType": "address",
              "name": "admin",
              "type": "address"
            },
            {
              "indexed": false,
              "internalType": "uint256",
              "name": "duration",
              "type": "uint256"
            },
            {
              "indexed": false,
              "internalType": "uint256",
              "name": "blockTime",
              "type": "uint256"
            }
          ],
          "name": "newDurationDeposit",
          "type": "event"
        },
        {
          "anonymous": false,
          "inputs": [
            {
              "indexed": false,
              "internalType": "address",
              "name": "admin",
              "type": "address"
            },
            {
              "indexed": false,
              "internalType": "uint256",
              "name": "duration",
              "type": "uint256"
            },
            {
              "indexed": false,
              "internalType": "uint256",
              "name": "blockTime",
              "type": "uint256"
            }
          ],
          "name": "newDurationVote",
          "type": "event"
        },
        {
          "anonymous": false,
          "inputs": [
            {
              "indexed": false,
              "internalType": "address",
              "name": "admin",
              "type": "address"
            },
            {
              "indexed": false,
              "internalType": "uint256",
              "name": "amount",
              "type": "uint256"
            },
            {
              "indexed": false,
              "internalType": "uint256",
              "name": "blockTime",
              "type": "uint256"
            }
          ],
          "name": "newInitialProposal",
          "type": "event"
        },
        {
          "anonymous": false,
          "inputs": [
            {
              "indexed": false,
              "internalType": "address",
              "name": "admin",
              "type": "address"
            },
            {
              "indexed": false,
              "internalType": "uint256",
              "name": "amount",
              "type": "uint256"
            },
            {
              "indexed": false,
              "internalType": "uint256",
              "name": "blockTime",
              "type": "uint256"
            }
          ],
          "name": "newMinDeposit",
          "type": "event"
        },
        {
          "anonymous": false,
          "inputs": [
            {
              "indexed": false,
              "internalType": "uint256",
              "name": "proposalID",
              "type": "uint256"
            },
            {
              "indexed": false,
              "internalType": "address",
              "name": "proposer",
              "type": "address"
            },
            {
              "indexed": false,
              "internalType": "string",
              "name": "title",
              "type": "string"
            },
            {
              "indexed": false,
              "internalType": "string",
              "name": "description",
              "type": "string"
            },
            {
              "indexed": false,
              "internalType": "uint256",
              "name": "amount",
              "type": "uint256"
            },
            {
              "indexed": false,
              "internalType": "uint256",
              "name": "blockTime",
              "type": "uint256"
            }
          ],
          "name": "newProposal",
          "type": "event"
        },
        {
          "anonymous": false,
          "inputs": [
            {
              "indexed": false,
              "internalType": "address",
              "name": "admin",
              "type": "address"
            },
            {
              "indexed": false,
              "internalType": "uint256",
              "name": "quorum",
              "type": "uint256"
            },
            {
              "indexed": false,
              "internalType": "uint256",
              "name": "blockTime",
              "type": "uint256"
            }
          ],
          "name": "newQuorum",
          "type": "event"
        },
        {
          "anonymous": false,
          "inputs": [
            {
              "indexed": false,
              "internalType": "address",
              "name": "admin",
              "type": "address"
            },
            {
              "indexed": false,
              "internalType": "uint256",
              "name": "threshold",
              "type": "uint256"
            },
            {
              "indexed": false,
              "internalType": "uint256",
              "name": "blockTime",
              "type": "uint256"
            }
          ],
          "name": "newThresholdPassed",
          "type": "event"
        },
        {
          "anonymous": false,
          "inputs": [
            {
              "indexed": false,
              "internalType": "address",
              "name": "admin",
              "type": "address"
            },
            {
              "indexed": false,
              "internalType": "uint256",
              "name": "threshold",
              "type": "uint256"
            },
            {
              "indexed": false,
              "internalType": "uint256",
              "name": "blockTime",
              "type": "uint256"
            }
          ],
          "name": "newThresholdVeto",
          "type": "event"
        },
        {
          "anonymous": false,
          "inputs": [
            {
              "indexed": false,
              "internalType": "address",
              "name": "validator",
              "type": "address"
            },
            {
              "indexed": false,
              "internalType": "uint256",
              "name": "blockTime",
              "type": "uint256"
            },
            {
              "indexed": false,
              "internalType": "bool",
              "name": "status",
              "type": "bool"
            }
          ],
          "name": "newValidator",
          "type": "event"
        },
        {
          "anonymous": false,
          "inputs": [
            {
              "indexed": false,
              "internalType": "uint256",
              "name": "proposalID",
              "type": "uint256"
            },
            {
              "indexed": false,
              "internalType": "address",
              "name": "owner",
              "type": "address"
            },
            {
              "indexed": false,
              "internalType": "uint256",
              "name": "amount",
              "type": "uint256"
            },
            {
              "indexed": false,
              "internalType": "uint256",
              "name": "status",
              "type": "uint256"
            },
            {
              "indexed": false,
              "internalType": "uint256",
              "name": "blockTime",
              "type": "uint256"
            }
          ],
          "name": "newVote",
          "type": "event"
        },
        {
          "anonymous": false,
          "inputs": [
            {
              "indexed": false,
              "internalType": "uint256",
              "name": "proposalID",
              "type": "uint256"
            },
            {
              "indexed": false,
              "internalType": "address",
              "name": "owner",
              "type": "address"
            },
            {
              "indexed": false,
              "internalType": "uint256",
              "name": "amount",
              "type": "uint256"
            },
            {
              "indexed": false,
              "internalType": "uint256",
              "name": "blockTime",
              "type": "uint256"
            }
          ],
          "name": "newWithdraw",
          "type": "event"
        },
        {
          "inputs": [],
          "name": "CloseCreateProposal",
          "outputs": [],
          "stateMutability": "nonpayable",
          "type": "function"
        },
        {
          "inputs": [
            {
              "internalType": "uint256",
              "name": "_proposalNumber",
              "type": "uint256"
            }
          ],
          "name": "UpdateProposalNumber",
          "outputs": [],
          "stateMutability": "nonpayable",
          "type": "function"
        },
        {
          "inputs": [
            {
              "internalType": "uint256",
              "name": "_proposalID",
              "type": "uint256"
            },
            {
              "internalType": "uint256",
              "name": "_status",
              "type": "uint256"
            }
          ],
          "name": "activeDeposit",
          "outputs": [],
          "stateMutability": "nonpayable",
          "type": "function"
        },
        {
          "inputs": [
            {
              "internalType": "address",
              "name": "",
              "type": "address"
            }
          ],
          "name": "admin",
          "outputs": [
            {
              "internalType": "bool",
              "name": "",
              "type": "bool"
            }
          ],
          "stateMutability": "view",
          "type": "function"
        },
        {
          "inputs": [],
          "name": "burn",
          "outputs": [
            {
              "internalType": "address",
              "name": "",
              "type": "address"
            }
          ],
          "stateMutability": "view",
          "type": "function"
        },
        {
          "inputs": [
            {
              "internalType": "string",
              "name": "_title",
              "type": "string"
            },
            {
              "internalType": "string",
              "name": "_description",
              "type": "string"
            }
          ],
          "name": "createProposal",
          "outputs": [],
          "stateMutability": "nonpayable",
          "type": "function"
        },
        {
          "inputs": [
            {
              "internalType": "uint256",
              "name": "_proposalID",
              "type": "uint256"
            },
            {
              "internalType": "uint256",
              "name": "_amount",
              "type": "uint256"
            }
          ],
          "name": "deposit",
          "outputs": [],
          "stateMutability": "nonpayable",
          "type": "function"
        },
        {
          "inputs": [],
          "name": "durationDeposit",
          "outputs": [
            {
              "internalType": "uint256",
              "name": "",
              "type": "uint256"
            }
          ],
          "stateMutability": "view",
          "type": "function"
        },
        {
          "inputs": [],
          "name": "durationVote",
          "outputs": [
            {
              "internalType": "uint256",
              "name": "",
              "type": "uint256"
            }
          ],
          "stateMutability": "view",
          "type": "function"
        },
        {
          "inputs": [
            {
              "internalType": "uint256",
              "name": "_durationDeposit",
              "type": "uint256"
            }
          ],
          "name": "editDurationDeposit",
          "outputs": [],
          "stateMutability": "nonpayable",
          "type": "function"
        },
        {
          "inputs": [
            {
              "internalType": "uint256",
              "name": "_durationVote",
              "type": "uint256"
            }
          ],
          "name": "editDurationVote",
          "outputs": [],
          "stateMutability": "nonpayable",
          "type": "function"
        },
        {
          "inputs": [
            {
              "internalType": "uint256",
              "name": "_initialProposal",
              "type": "uint256"
            }
          ],
          "name": "editInitialProposal",
          "outputs": [],
          "stateMutability": "nonpayable",
          "type": "function"
        },
        {
          "inputs": [
            {
              "internalType": "uint256",
              "name": "_minDeposit",
              "type": "uint256"
            }
          ],
          "name": "editMinDeposit",
          "outputs": [],
          "stateMutability": "nonpayable",
          "type": "function"
        },
        {
          "inputs": [
            {
              "internalType": "uint256",
              "name": "_quorum",
              "type": "uint256"
            }
          ],
          "name": "editQuorum",
          "outputs": [],
          "stateMutability": "nonpayable",
          "type": "function"
        },
        {
          "inputs": [
            {
              "internalType": "address",
              "name": "_stake",
              "type": "address"
            }
          ],
          "name": "editStakeAddress",
          "outputs": [],
          "stateMutability": "nonpayable",
          "type": "function"
        },
        {
          "inputs": [
            {
              "internalType": "uint256",
              "name": "_passed",
              "type": "uint256"
            }
          ],
          "name": "editThresholdPassed",
          "outputs": [],
          "stateMutability": "nonpayable",
          "type": "function"
        },
        {
          "inputs": [
            {
              "internalType": "uint256",
              "name": "_veto",
              "type": "uint256"
            }
          ],
          "name": "editThresholdVeto",
          "outputs": [],
          "stateMutability": "nonpayable",
          "type": "function"
        },
        {
          "inputs": [
            {
              "internalType": "uint256",
              "name": "_amount",
              "type": "uint256"
            }
          ],
          "name": "emergencyWithdraw",
          "outputs": [],
          "stateMutability": "nonpayable",
          "type": "function"
        },
        {
          "inputs": [
            {
              "internalType": "uint256",
              "name": "_proposalID",
              "type": "uint256"
            }
          ],
          "name": "executeProposal",
          "outputs": [
            {
              "internalType": "uint256",
              "name": "",
              "type": "uint256"
            }
          ],
          "stateMutability": "nonpayable",
          "type": "function"
        },
        {
          "inputs": [],
          "name": "governanceToken",
          "outputs": [
            {
              "internalType": "contract IERC20",
              "name": "",
              "type": "address"
            }
          ],
          "stateMutability": "view",
          "type": "function"
        },
        {
          "inputs": [],
          "name": "initialProposal",
          "outputs": [
            {
              "internalType": "uint256",
              "name": "",
              "type": "uint256"
            }
          ],
          "stateMutability": "view",
          "type": "function"
        },
        {
          "inputs": [
            {
              "internalType": "address",
              "name": "",
              "type": "address"
            },
            {
              "internalType": "uint256",
              "name": "",
              "type": "uint256"
            }
          ],
          "name": "mapDeposits",
          "outputs": [
            {
              "internalType": "uint256",
              "name": "",
              "type": "uint256"
            }
          ],
          "stateMutability": "view",
          "type": "function"
        },
        {
          "inputs": [
            {
              "internalType": "address",
              "name": "",
              "type": "address"
            },
            {
              "internalType": "uint256",
              "name": "",
              "type": "uint256"
            }
          ],
          "name": "mapVotes",
          "outputs": [
            {
              "internalType": "uint256",
              "name": "",
              "type": "uint256"
            }
          ],
          "stateMutability": "view",
          "type": "function"
        },
        {
          "inputs": [],
          "name": "minDeposit",
          "outputs": [
            {
              "internalType": "uint256",
              "name": "",
              "type": "uint256"
            }
          ],
          "stateMutability": "view",
          "type": "function"
        },
        {
          "inputs": [],
          "name": "owner",
          "outputs": [
            {
              "internalType": "address",
              "name": "",
              "type": "address"
            }
          ],
          "stateMutability": "view",
          "type": "function"
        },
        {
          "inputs": [
            {
              "internalType": "address[]",
              "name": "_admin",
              "type": "address[]"
            }
          ],
          "name": "powerAdmin",
          "outputs": [],
          "stateMutability": "nonpayable",
          "type": "function"
        },
        {
          "inputs": [
            {
              "internalType": "address[]",
              "name": "_validator",
              "type": "address[]"
            }
          ],
          "name": "powerValidator",
          "outputs": [],
          "stateMutability": "nonpayable",
          "type": "function"
        },
        {
          "inputs": [
            {
              "internalType": "uint256",
              "name": "",
              "type": "uint256"
            }
          ],
          "name": "proposal",
          "outputs": [
            {
              "internalType": "address",
              "name": "proposer",
              "type": "address"
            },
            {
              "internalType": "string",
              "name": "title",
              "type": "string"
            },
            {
              "internalType": "string",
              "name": "description",
              "type": "string"
            },
            {
              "internalType": "uint256",
              "name": "deposit",
              "type": "uint256"
            },
            {
              "internalType": "uint256",
              "name": "status",
              "type": "uint256"
            },
            {
              "internalType": "uint256",
              "name": "votesPassed",
              "type": "uint256"
            },
            {
              "internalType": "uint256",
              "name": "votesFail",
              "type": "uint256"
            },
            {
              "internalType": "uint256",
              "name": "votesVeto",
              "type": "uint256"
            },
            {
              "internalType": "uint256",
              "name": "totalStake",
              "type": "uint256"
            },
            {
              "internalType": "uint256",
              "name": "start",
              "type": "uint256"
            },
            {
              "internalType": "uint256",
              "name": "endDeposit",
              "type": "uint256"
            },
            {
              "internalType": "uint256",
              "name": "endVote",
              "type": "uint256"
            },
            {
              "internalType": "uint256",
              "name": "blockTime",
              "type": "uint256"
            }
          ],
          "stateMutability": "view",
          "type": "function"
        },
        {
          "inputs": [],
          "name": "quorum",
          "outputs": [
            {
              "internalType": "uint256",
              "name": "",
              "type": "uint256"
            }
          ],
          "stateMutability": "view",
          "type": "function"
        },
        {
          "inputs": [],
          "name": "renounceOwnership",
          "outputs": [],
          "stateMutability": "nonpayable",
          "type": "function"
        },
        {
          "inputs": [],
          "name": "stake",
          "outputs": [
            {
              "internalType": "contract Stake",
              "name": "",
              "type": "address"
            }
          ],
          "stateMutability": "view",
          "type": "function"
        },
        {
          "inputs": [
            {
              "internalType": "address",
              "name": "",
              "type": "address"
            },
            {
              "internalType": "uint256",
              "name": "",
              "type": "uint256"
            },
            {
              "internalType": "uint256",
              "name": "",
              "type": "uint256"
            }
          ],
          "name": "statusVotes",
          "outputs": [
            {
              "internalType": "uint256",
              "name": "",
              "type": "uint256"
            }
          ],
          "stateMutability": "view",
          "type": "function"
        },
        {
          "inputs": [],
          "name": "thresholdPassed",
          "outputs": [
            {
              "internalType": "uint256",
              "name": "",
              "type": "uint256"
            }
          ],
          "stateMutability": "view",
          "type": "function"
        },
        {
          "inputs": [],
          "name": "thresholdVeto",
          "outputs": [
            {
              "internalType": "uint256",
              "name": "",
              "type": "uint256"
            }
          ],
          "stateMutability": "view",
          "type": "function"
        },
        {
          "inputs": [
            {
              "internalType": "address",
              "name": "newOwner",
              "type": "address"
            }
          ],
          "name": "transferOwnership",
          "outputs": [],
          "stateMutability": "nonpayable",
          "type": "function"
        },
        {
          "inputs": [
            {
              "internalType": "address",
              "name": "",
              "type": "address"
            }
          ],
          "name": "validator",
          "outputs": [
            {
              "internalType": "bool",
              "name": "",
              "type": "bool"
            }
          ],
          "stateMutability": "view",
          "type": "function"
        },
        {
          "inputs": [
            {
              "internalType": "uint256",
              "name": "_proposalID",
              "type": "uint256"
            },
            {
              "internalType": "uint256",
              "name": "_amount",
              "type": "uint256"
            },
            {
              "internalType": "uint256",
              "name": "_vote",
              "type": "uint256"
            }
          ],
          "name": "vote",
          "outputs": [],
          "stateMutability": "nonpayable",
          "type": "function"
        },
        {
          "inputs": [
            {
              "internalType": "address",
              "name": "",
              "type": "address"
            },
            {
              "internalType": "uint256",
              "name": "",
              "type": "uint256"
            }
          ],
          "name": "withdrawID",
          "outputs": [
            {
              "internalType": "bool",
              "name": "",
              "type": "bool"
            }
          ],
          "stateMutability": "view",
          "type": "function"
        },
        {
          "inputs": [
            {
              "internalType": "uint256",
              "name": "_proposalID",
              "type": "uint256"
            }
          ],
          "name": "withdrawal",
          "outputs": [],
          "stateMutability": "nonpayable",
          "type": "function"
        }
      ],
      "evm": {
        "bytecode": {
          "linkReferences": {},
          "object": "60806040526000600f553480156200001657600080fd5b506040516200294238038062002942833981016040819052620000399162000138565b69021e19e0c9bab2400000690a968163f0a57b4000006212750062093a80606461014e6101f46200006a33620000cb565b600196909655600294909455600392909255600455600555600655600755600a80546001600160a01b039485166001600160a01b031991821617909155600b805493851693821693909317909255600c805491909316911617905562000182565b600080546001600160a01b038381166001600160a01b0319831681178455604051919092169283917f8be0079c531659141344cd1fd0a4f28419497f9722a3daafe3b4186f6b6457e09190a35050565b80516001600160a01b03811681146200013357600080fd5b919050565b6000806000606084860312156200014e57600080fd5b62000159846200011b565b925062000169602085016200011b565b915062000179604085016200011b565b90509250925092565b6127b080620001926000396000f3fe608060405234801561001057600080fd5b506004361061023d5760003560e01c8063835fc6ca1161013b578063bb7dc052116100b8578063ed69caeb1161007c578063ed69caeb14610531578063f2fde38b14610544578063f3a1110314610557578063f96dae0a14610582578063fd643bc21461059557600080fd5b8063bb7dc052146104e6578063cc92639d146104f9578063d527e5bc14610502578063d78d26c714610515578063e2bbb1581461051e57600080fd5b80638faefb99116100ff5780638faefb991461047957806396ec2959146104a45780639cbc5d95146104b75780639dabe5f2146104ca578063a02976c2146104d357600080fd5b8063835fc6ca1461042757806388efc1871461043a5780638a6655d6146104425780638b26bff9146104555780638da5cb5b1461046857600080fd5b806341b3d185116101c957806363a846f81161018d57806363a846f8146103b257806365e481e2146103d5578063715018a6146103e8578063783fd590146103f05780637c568f6a1461041e57600080fd5b806341b3d1851461036757806341b90af41461037057806344df8e7014610383578063510e87d0146103965780635312ea8e1461039f57600080fd5b8063223b3b7a11610210578063223b3b7a1461029957806327ede436146102cc578063297457f1146102df57806330326c17146103105780633a4b66f11461033c57600080fd5b8063050584c7146102425780630d61b519146102575780631703a0181461027d5780631d5592fe14610286575b600080fd5b610255610250366004612103565b6105a8565b005b61026a610265366004612103565b610624565b6040519081526020015b60405180910390f35b61026a60055481565b610255610294366004612178565b6109a2565b6102bc6102a736600461222a565b60096020526000908152604090205460ff1681565b6040519015158152602001610274565b6102556102da366004612178565b610b2d565b61026a6102ed366004612247565b601160209081526000938452604080852082529284528284209052825290205481565b61032361031e366004612103565b610cb4565b6040516102749d9c9b9a999897969594939291906122d4565b600b5461034f906001600160a01b031681565b6040516001600160a01b039091168152602001610274565b61026a60025481565b61025561037e366004612103565b610e2d565b600c5461034f906001600160a01b031681565b61026a60045481565b6102556103ad366004612103565b610e95565b6102bc6103c036600461222a565b60086020526000908152604090205460ff1681565b6102556103e33660046123ce565b610efe565b61025561117d565b6102bc6103fe366004612432565b601260209081526000928352604080842090915290825290205460ff1681565b61026a60015481565b610255610435366004612103565b6111b3565b61025561138a565b61025561045036600461245e565b6113c8565b610255610463366004612103565b6116bf565b6000546001600160a01b031661034f565b61026a610487366004612432565b600d60209081526000928352604080842090915290825290205481565b6102556104b2366004612103565b611727565b6102556104c5366004612103565b611756565b61026a60035481565b6102556104e136600461248a565b6117be565b6102556104f436600461222a565b611906565b61026a60065481565b610255610510366004612103565b611957565b61026a60075481565b61025561052c36600461248a565b6119bf565b61025561053f366004612103565b611ae6565b61025561055236600461222a565b611b4e565b61026a610565366004612432565b600e60209081526000928352604080842090915290825290205481565b600a5461034f906001600160a01b031681565b6102556105a3366004612103565b611be9565b3360009081526008602052604090205460ff166105e05760405162461bcd60e51b81526004016105d7906124ac565b60405180910390fd5b60048190556040517f150b13c3241261fb18489d675d278ab7418adf509bb87eb751c4973b76805f9390610619903390849042906124d0565b60405180910390a150565b3360009081526009602052604081205460ff166106745760405162461bcd60e51b815260206004820152600e60248201526d27b7363c902b30b634b230ba37b960911b60448201526064016105d7565b6000828152601360205260409020600481015460031480610699575080600401546005145b6106dd5760405162461bcd60e51b815260206004820152601560248201527410d85b9d08195e1958dd5d19481c1c9bdc1bdcd85b605a1b60448201526064016105d7565b6004810154600381900361079d574282600a015410806107035750600254826003015410155b6107425760405162461bcd60e51b815260206004820152601060248201526f43616e742061637469766520766f746560801b60448201526064016105d7565b600382015460025481101561076e57600c54610767906001600160a01b031682611c51565b6004838101555b600254811061079b57600560048085019190915542600a8501819055905461079591611cfb565b600b8401555b505b80600503610958574282600b0154106107ed5760405162461bcd60e51b815260206004820152601260248201527143616e74206163746976652073746174757360701b60448201526064016105d7565b600b54604051631526fe2760e01b8152600060048201819052916001600160a01b031690631526fe279060240160a060405180830381865afa158015610837573d6000803e3d6000fd5b505050506040513d601f19601f8201168201806040525081019061085b91906124f1565b945050505050600083600701548460050154856006015461087c9190612550565b6108869190612550565b905060006108a08361089a846103e8611d0e565b90611d1a565b9050600082156108cc576108c78361089a6103e88960070154611d0e90919063ffffffff16565b6108cf565b60645b905060055482101580156108e4575060065481105b1561092d5760006109088461089a6103e88a60050154611d0e90919063ffffffff16565b9050600754811061091f5760066004880155610927565b600760048801555b5061094f565b60086004870155600c54600387015461094f916001600160a01b031690611c51565b50505060088301555b60048201546040805186815260208101929092527f026111d131ac2e5f1d2d00d7503064c00348006d76f8c797b9e01f11dc6d1a0b910160405180910390a1506004015492915050565b6000546001600160a01b031633146109cc5760405162461bcd60e51b81526004016105d790612568565b60005b8151811015610b2957600960008383815181106109ee576109ee61259d565b60200260200101516001600160a01b03166001600160a01b0316815260200190815260200160002060009054906101000a900460ff161560096000848481518110610a3b57610a3b61259d565b60200260200101516001600160a01b03166001600160a01b0316815260200190815260200160002060006101000a81548160ff0219169083151502179055507fd6199ec46577060859008f25fac746382b09ab4de2e0d0129ca032400a156a20828281518110610aad57610aad61259d565b60200260200101514260096000868681518110610acc57610acc61259d565b6020908102919091018101516001600160a01b03908116835282820193909352604091820160002054825195909316855284019290925260ff1615159082015260600160405180910390a180610b21816125b3565b9150506109cf565b5050565b6000546001600160a01b03163314610b575760405162461bcd60e51b81526004016105d790612568565b60005b8151811015610b295760086000838381518110610b7957610b7961259d565b60200260200101516001600160a01b03166001600160a01b0316815260200190815260200160002060009054906101000a900460ff161560086000848481518110610bc657610bc661259d565b60200260200101516001600160a01b03166001600160a01b0316815260200190815260200160002060006101000a81548160ff0219169083151502179055507f546b4a40eedc906ef1f3158a8308f9a144826e49085ecdf4fc62f94eb6bcbb73828281518110610c3857610c3861259d565b60200260200101514260096000868681518110610c5757610c5761259d565b6020908102919091018101516001600160a01b03908116835282820193909352604091820160002054825195909316855284019290925260ff1615159082015260600160405180910390a180610cac816125b3565b915050610b5a565b601360205260009081526040902080546001820180546001600160a01b039092169291610ce0906125cc565b80601f0160208091040260200160405190810160405280929190818152602001828054610d0c906125cc565b8015610d595780601f10610d2e57610100808354040283529160200191610d59565b820191906000526020600020905b815481529060010190602001808311610d3c57829003601f168201915b505050505090806002018054610d6e906125cc565b80601f0160208091040260200160405190810160405280929190818152602001828054610d9a906125cc565b8015610de75780601f10610dbc57610100808354040283529160200191610de7565b820191906000526020600020905b815481529060010190602001808311610dca57829003601f168201915b50505050509080600301549080600401549080600501549080600601549080600701549080600801549080600901549080600a01549080600b01549080600c015490508d565b3360009081526008602052604090205460ff16610e5c5760405162461bcd60e51b81526004016105d7906124ac565b60078190556040517fd0ec5747ddbcdefdafb542c9044c452ecb6a80c311172d2a0f23a672c074535890610619903390849042906124d0565b6000546001600160a01b03163314610ebf5760405162461bcd60e51b81526004016105d790612568565b610ec93382611c51565b604080518281524260208201527fb073e6fbd06d7557d2c82f414fee57de28e7fb517ecc0afdd6b1fc57034a9cb89101610619565b60105460ff1615610f495760405162461bcd60e51b815260206004820152601560248201527446656174757265206e6f7420617661696c61626c6560581b60448201526064016105d7565b6001600f6000828254610f5c9190612550565b9091555050604080516101a081018252338152602080820185815282840185905260018054606085015260808401819052600060a0850181905260c0850181905260e08501819052610100850181905261012085018190526101408501819052610160850181905242610180860152600f5481526013845294909420835181546001600160a01b0319166001600160a01b03909116178155905180519394919361100e9392850192919091019061206a565b506040820151805161102a91600284019160209091019061206a565b50606082015160038201556080820151600482015560a0820151600582015560c0820151600682015560e0820151600782015561010082015160088201556101208201516009820155610140820151600a820155610160820151600b82015561018090910151600c90910155600154336000908152600d60209081526040808320600f548452909152812080549091906110c5908490612550565b9091555050600154600a546110e9916001600160a01b039091169033903090611d26565b600f546001546040805133815260208101939093528201524260608201527f91c606a31adb3414dbfd68de98937e47ed510502bafafdbd10eb54fa1046010c9060800160405180910390a17f953b5cb5cb62dd48f88a32a2946ba9b41daf1fc13c27a171adc50cec124fd543600f543384846001544260405161117196959493929190612606565b60405180910390a15050565b6000546001600160a01b031633146111a75760405162461bcd60e51b81526004016105d790612568565b6111b16000611d97565b565b60008181526013602052604090206004810154600614806111d8575080600401546007145b6112245760405162461bcd60e51b815260206004820152601f60248201527f43616e7420776974686472617720666f7220746869732050726f706f73616c0060448201526064016105d7565b33600090815260126020908152604080832085845290915290205460ff161561129b5760405162461bcd60e51b8152602060048201526024808201527f596f7520686176652077697468647261776e20666f7220746869732050726f706044820152631bdcd85b60e21b60648201526084016105d7565b336000908152600d602090815260408083208584529091529020548061130f5760405162461bcd60e51b815260206004820152602360248201527f4e6f7420666f756e64206465706f73697420666f7220746869732050726f706f6044820152621cd85b60ea1b60648201526084016105d7565b3360008181526012602090815260408083208784529091529020805460ff1916600117905561133e9082611c51565b604080518481523360208201529081018290524260608201527fa311bffb0586d2ac1153012e4261c95778fe16b8e783a3044ed33fafb919e3b9906080015b60405180910390a1505050565b6000546001600160a01b031633146113b45760405162461bcd60e51b81526004016105d790612568565b6010805460ff19811660ff90911615179055565b600083815260136020526040902060048101546005146114165760405162461bcd60e51b815260206004820152600960248201526843616e7420566f746560b81b60448201526064016105d7565b42816009015410801561142c57504281600b0154115b6114485760405162461bcd60e51b81526004016105d790612658565b81600614806114575750816007145b806114625750816008145b61149f5760405162461bcd60e51b815260206004820152600e60248201526d159bdd19481b9bdd08199bdd5b9960921b60448201526064016105d7565b600b546040516393f1a40b60e01b8152600060048201819052336024830152916001600160a01b0316906393f1a40b90604401606060405180830381865afa1580156114ef573d6000803e3d6000fd5b505050506040513d601f19601f8201168201806040525081019061151391906126a1565b5050336000908152600e6020908152604080832089845290915290205490915061153d9085611cfb565b81101561159e5760405162461bcd60e51b815260206004820152602960248201527f596f75206861766520746f207374616b65206d6f726520746f2062652061626c6044820152686520746f20766f746560b81b60648201526084016105d7565b336000908152600e60209081526040808320888452909152812080548692906115c8908490612550565b90915550503360009081526011602090815260408083208884528252808320868452909152812080548692906115ff908490612550565b9091555050600683900361162757838260050160008282546116219190612550565b90915550505b8260070361164957838260060160008282546116439190612550565b90915550505b8260080361166b57838260070160008282546116659190612550565b90915550505b60408051868152336020820152908101859052606081018490524260808201527f1be57e677ccdbe44204c15cbe73870f8afcfcd628e054b0df3e7dd48ff7f23a19060a00160405180910390a15050505050565b3360009081526008602052604090205460ff166116ee5760405162461bcd60e51b81526004016105d7906124ac565b60018190556040517f348ea656137b9a646ee4710808084bb27cde9b69f49625bb9defcd0099c26cdb90610619903390849042906124d0565b6000546001600160a01b031633146117515760405162461bcd60e51b81526004016105d790612568565b600f55565b3360009081526008602052604090205460ff166117855760405162461bcd60e51b81526004016105d7906124ac565b60068190556040517f523e107819d8d7e488e3f49d9127abf47e8dbea6044e6a36413877a9b0f69b6390610619903390849042906124d0565b3360009081526008602052604090205460ff166117ed5760405162461bcd60e51b81526004016105d7906124ac565b6000828152601360205260409020600481015460011461183e5760405162461bcd60e51b815260206004820152600c60248201526b63616e27742075706461746560a01b60448201526064016105d7565b816002148061184d5750816003145b806118585750816009145b61186157600080fd5b60048101829055600282900361188b578054600382015461188b916001600160a01b031690611c51565b816009036118ae57600c5460038201546118ae916001600160a01b031690611c51565b816003036118d05742600982018190556003546118ca91611cfb565b600a8201555b60408051848152602081018490527f026111d131ac2e5f1d2d00d7503064c00348006d76f8c797b9e01f11dc6d1a0b910161137d565b3360009081526008602052604090205460ff166119355760405162461bcd60e51b81526004016105d7906124ac565b600b80546001600160a01b0319166001600160a01b0392909216919091179055565b3360009081526008602052604090205460ff166119865760405162461bcd60e51b81526004016105d7906124ac565b60038190556040517f15bb72481b346ab33c30b93a8fc381bdcd2c3c6758bd08ebd007e9676f3fd18990610619903390849042906124d0565b60008281526013602052604090206004810154600314611a105760405162461bcd60e51b815260206004820152600c60248201526b10d85b9d0819195c1bdcda5d60a21b60448201526064016105d7565b428160090154108015611a2657504281600a0154115b611a425760405162461bcd60e51b81526004016105d790612658565b81816003016000828254611a569190612550565b9091555050336000908152600d6020908152604080832086845290915281208054849290611a85908490612550565b9091555050600a54611aa2906001600160a01b0316333085611d26565b60408051338152602081018590529081018390524260608201527f91c606a31adb3414dbfd68de98937e47ed510502bafafdbd10eb54fa1046010c9060800161137d565b3360009081526008602052604090205460ff16611b155760405162461bcd60e51b81526004016105d7906124ac565b60058190556040517fe57c3259c2139b60960087ad611dc7abf0d0d9b5258b03fc8f8a89a5af7188a190610619903390849042906124d0565b6000546001600160a01b03163314611b785760405162461bcd60e51b81526004016105d790612568565b6001600160a01b038116611bdd5760405162461bcd60e51b815260206004820152602660248201527f4f776e61626c653a206e6577206f776e657220697320746865207a65726f206160448201526564647265737360d01b60648201526084016105d7565b611be681611d97565b50565b3360009081526008602052604090205460ff16611c185760405162461bcd60e51b81526004016105d7906124ac565b60028190556040517f2e1898adb5e93e50aefb6c023d7e2c20ef8918d8090f99bd6524187d9dab3fa390610619903390849042906124d0565b600a546040516370a0823160e01b81523060048201526000916001600160a01b0316906370a0823190602401602060405180830381865afa158015611c9a573d6000803e3d6000fd5b505050506040513d601f19601f82011682018060405250810190611cbe91906126cf565b905080821115611ce457600a54611cdf906001600160a01b03168483611de7565b505050565b600a54611cdf906001600160a01b03168484611de7565b6000611d078284612550565b9392505050565b6000611d0782846126e8565b6000611d078284612707565b6040516001600160a01b0380851660248301528316604482015260648101829052611d919085906323b872dd60e01b906084015b60408051601f198184030181529190526020810180516001600160e01b03166001600160e01b031990931692909217909152611e17565b50505050565b600080546001600160a01b038381166001600160a01b0319831681178455604051919092169283917f8be0079c531659141344cd1fd0a4f28419497f9722a3daafe3b4186f6b6457e09190a35050565b6040516001600160a01b038316602482015260448101829052611cdf90849063a9059cbb60e01b90606401611d5a565b6000611e6c826040518060400160405280602081526020017f5361666545524332303a206c6f772d6c6576656c2063616c6c206661696c6564815250856001600160a01b0316611ee99092919063ffffffff16565b805190915015611cdf5780806020019051810190611e8a9190612729565b611cdf5760405162461bcd60e51b815260206004820152602a60248201527f5361666545524332303a204552433230206f7065726174696f6e20646964206e6044820152691bdd081cdd58d8d9595960b21b60648201526084016105d7565b6060611ef88484600085611f00565b949350505050565b606082471015611f615760405162461bcd60e51b815260206004820152602660248201527f416464726573733a20696e73756666696369656e742062616c616e636520666f6044820152651c8818d85b1b60d21b60648201526084016105d7565b6001600160a01b0385163b611fb85760405162461bcd60e51b815260206004820152601d60248201527f416464726573733a2063616c6c20746f206e6f6e2d636f6e747261637400000060448201526064016105d7565b600080866001600160a01b03168587604051611fd4919061274b565b60006040518083038185875af1925050503d8060008114612011576040519150601f19603f3d011682016040523d82523d6000602084013e612016565b606091505b5091509150612026828286612031565b979650505050505050565b60608315612040575081611d07565b8251156120505782518084602001fd5b8160405162461bcd60e51b81526004016105d79190612767565b828054612076906125cc565b90600052602060002090601f01602090048101928261209857600085556120de565b82601f106120b157805160ff19168380011785556120de565b828001600101855582156120de579182015b828111156120de5782518255916020019190600101906120c3565b506120ea9291506120ee565b5090565b5b808211156120ea57600081556001016120ef565b60006020828403121561211557600080fd5b5035919050565b634e487b7160e01b600052604160045260246000fd5b604051601f8201601f1916810167ffffffffffffffff8111828210171561215b5761215b61211c565b604052919050565b6001600160a01b0381168114611be657600080fd5b6000602080838503121561218b57600080fd5b823567ffffffffffffffff808211156121a357600080fd5b818501915085601f8301126121b757600080fd5b8135818111156121c9576121c961211c565b8060051b91506121da848301612132565b81815291830184019184810190888411156121f457600080fd5b938501935b8385101561221e578435925061220e83612163565b82825293850193908501906121f9565b98975050505050505050565b60006020828403121561223c57600080fd5b8135611d0781612163565b60008060006060848603121561225c57600080fd5b833561226781612163565b95602085013595506040909401359392505050565b60005b8381101561229757818101518382015260200161227f565b83811115611d915750506000910152565b600081518084526122c081602086016020860161227c565b601f01601f19169290920160200192915050565b6001600160a01b038e1681526101a0602082018190526000906122f99083018f6122a8565b828103604084015261230b818f6122a8565b606084019d909d525050608081019990995260a089019790975260c088019590955260e0870193909352610100860191909152610120850152610140840152610160830152610180909101529392505050565b600082601f83011261236f57600080fd5b813567ffffffffffffffff8111156123895761238961211c565b61239c601f8201601f1916602001612132565b8181528460208386010111156123b157600080fd5b816020850160208301376000918101602001919091529392505050565b600080604083850312156123e157600080fd5b823567ffffffffffffffff808211156123f957600080fd5b6124058683870161235e565b9350602085013591508082111561241b57600080fd5b506124288582860161235e565b9150509250929050565b6000806040838503121561244557600080fd5b823561245081612163565b946020939093013593505050565b60008060006060848603121561247357600080fd5b505081359360208301359350604090920135919050565b6000806040838503121561249d57600080fd5b50508035926020909101359150565b6020808252600a908201526927b7363c9020b236b4b760b11b604082015260600190565b6001600160a01b039390931683526020830191909152604082015260600190565b600080600080600060a0868803121561250957600080fd5b855161251481612163565b602087015160408801516060890151608090990151929a91995097965090945092505050565b634e487b7160e01b600052601160045260246000fd5b600082198211156125635761256361253a565b500190565b6020808252818101527f4f776e61626c653a2063616c6c6572206973206e6f7420746865206f776e6572604082015260600190565b634e487b7160e01b600052603260045260246000fd5b6000600182016125c5576125c561253a565b5060010190565b600181811c908216806125e057607f821691505b60208210810361260057634e487b7160e01b600052602260045260246000fd5b50919050565b8681526001600160a01b038616602082015260c060408201819052600090612630908301876122a8565b828103606084015261264281876122a8565b6080840195909552505060a00152949350505050565b60208082526029908201527f54686520646561646c696e65206861732070617373656420666f72207468697360408201526808141c9bdc1bdcd85b60ba1b606082015260800190565b6000806000606084860312156126b657600080fd5b8351925060208401519150604084015190509250925092565b6000602082840312156126e157600080fd5b5051919050565b60008160001904831182151516156127025761270261253a565b500290565b60008261272457634e487b7160e01b600052601260045260246000fd5b500490565b60006020828403121561273b57600080fd5b81518015158114611d0757600080fd5b6000825161275d81846020870161227c565b9190910192915050565b602081526000611d0760208301846122a856fea2646970667358221220ff0a85d951fc026c5ee455e73a8a4ab03b8e67061b7d67028c0166ff1c2e13ed64736f6c634300080e0033",
          "opcodes": "PUSH1 0x80 PUSH1 0x40 MSTORE PUSH1 0x0 PUSH1 0xF SSTORE CALLVALUE DUP1 ISZERO PUSH3 0x16 JUMPI PUSH1 0x0 DUP1 REVERT JUMPDEST POP PUSH1 0x40 MLOAD PUSH3 0x2942 CODESIZE SUB DUP1 PUSH3 0x2942 DUP4 CODECOPY DUP2 ADD PUSH1 0x40 DUP2 SWAP1 MSTORE PUSH3 0x39 SWAP2 PUSH3 0x138 JUMP JUMPDEST PUSH10 0x21E19E0C9BAB2400000 PUSH10 0xA968163F0A57B400000 PUSH3 0x127500 PUSH3 0x93A80 PUSH1 0x64 PUSH2 0x14E PUSH2 0x1F4 PUSH3 0x6A CALLER PUSH3 0xCB JUMP JUMPDEST PUSH1 0x1 SWAP7 SWAP1 SWAP7 SSTORE PUSH1 0x2 SWAP5 SWAP1 SWAP5 SSTORE PUSH1 0x3 SWAP3 SWAP1 SWAP3 SSTORE PUSH1 0x4 SSTORE PUSH1 0x5 SSTORE PUSH1 0x6 SSTORE PUSH1 0x7 SSTORE PUSH1 0xA DUP1 SLOAD PUSH1 0x1 PUSH1 0x1 PUSH1 0xA0 SHL SUB SWAP5 DUP6 AND PUSH1 0x1 PUSH1 0x1 PUSH1 0xA0 SHL SUB NOT SWAP2 DUP3 AND OR SWAP1 SWAP2 SSTORE PUSH1 0xB DUP1 SLOAD SWAP4 DUP6 AND SWAP4 DUP3 AND SWAP4 SWAP1 SWAP4 OR SWAP1 SWAP3 SSTORE PUSH1 0xC DUP1 SLOAD SWAP2 SWAP1 SWAP4 AND SWAP2 AND OR SWAP1 SSTORE PUSH3 0x182 JUMP JUMPDEST PUSH1 0x0 DUP1 SLOAD PUSH1 0x1 PUSH1 0x1 PUSH1 0xA0 SHL SUB DUP4 DUP2 AND PUSH1 0x1 PUSH1 0x1 PUSH1 0xA0 SHL SUB NOT DUP4 AND DUP2 OR DUP5 SSTORE PUSH1 0x40 MLOAD SWAP2 SWAP1 SWAP3 AND SWAP3 DUP4 SWAP2 PUSH32 0x8BE0079C531659141344CD1FD0A4F28419497F9722A3DAAFE3B4186F6B6457E0 SWAP2 SWAP1 LOG3 POP POP JUMP JUMPDEST DUP1 MLOAD PUSH1 0x1 PUSH1 0x1 PUSH1 0xA0 SHL SUB DUP2 AND DUP2 EQ PUSH3 0x133 JUMPI PUSH1 0x0 DUP1 REVERT JUMPDEST SWAP2 SWAP1 POP JUMP JUMPDEST PUSH1 0x0 DUP1 PUSH1 0x0 PUSH1 0x60 DUP5 DUP7 SUB SLT ISZERO PUSH3 0x14E JUMPI PUSH1 0x0 DUP1 REVERT JUMPDEST PUSH3 0x159 DUP5 PUSH3 0x11B JUMP JUMPDEST SWAP3 POP PUSH3 0x169 PUSH1 0x20 DUP6 ADD PUSH3 0x11B JUMP JUMPDEST SWAP2 POP PUSH3 0x179 PUSH1 0x40 DUP6 ADD PUSH3 0x11B JUMP JUMPDEST SWAP1 POP SWAP3 POP SWAP3 POP SWAP3 JUMP JUMPDEST PUSH2 0x27B0 DUP1 PUSH3 0x192 PUSH1 0x0 CODECOPY PUSH1 0x0 RETURN INVALID PUSH1 0x80 PUSH1 0x40 MSTORE CALLVALUE DUP1 ISZERO PUSH2 0x10 JUMPI PUSH1 0x0 DUP1 REVERT JUMPDEST POP PUSH1 0x4 CALLDATASIZE LT PUSH2 0x23D JUMPI PUSH1 0x0 CALLDATALOAD PUSH1 0xE0 SHR DUP1 PUSH4 0x835FC6CA GT PUSH2 0x13B JUMPI DUP1 PUSH4 0xBB7DC052 GT PUSH2 0xB8 JUMPI DUP1 PUSH4 0xED69CAEB GT PUSH2 0x7C JUMPI DUP1 PUSH4 0xED69CAEB EQ PUSH2 0x531 JUMPI DUP1 PUSH4 0xF2FDE38B EQ PUSH2 0x544 JUMPI DUP1 PUSH4 0xF3A11103 EQ PUSH2 0x557 JUMPI DUP1 PUSH4 0xF96DAE0A EQ PUSH2 0x582 JUMPI DUP1 PUSH4 0xFD643BC2 EQ PUSH2 0x595 JUMPI PUSH1 0x0 DUP1 REVERT JUMPDEST DUP1 PUSH4 0xBB7DC052 EQ PUSH2 0x4E6 JUMPI DUP1 PUSH4 0xCC92639D EQ PUSH2 0x4F9 JUMPI DUP1 PUSH4 0xD527E5BC EQ PUSH2 0x502 JUMPI DUP1 PUSH4 0xD78D26C7 EQ PUSH2 0x515 JUMPI DUP1 PUSH4 0xE2BBB158 EQ PUSH2 0x51E JUMPI PUSH1 0x0 DUP1 REVERT JUMPDEST DUP1 PUSH4 0x8FAEFB99 GT PUSH2 0xFF JUMPI DUP1 PUSH4 0x8FAEFB99 EQ PUSH2 0x479 JUMPI DUP1 PUSH4 0x96EC2959 EQ PUSH2 0x4A4 JUMPI DUP1 PUSH4 0x9CBC5D95 EQ PUSH2 0x4B7 JUMPI DUP1 PUSH4 0x9DABE5F2 EQ PUSH2 0x4CA JUMPI DUP1 PUSH4 0xA02976C2 EQ PUSH2 0x4D3 JUMPI PUSH1 0x0 DUP1 REVERT JUMPDEST DUP1 PUSH4 0x835FC6CA EQ PUSH2 0x427 JUMPI DUP1 PUSH4 0x88EFC187 EQ PUSH2 0x43A JUMPI DUP1 PUSH4 0x8A6655D6 EQ PUSH2 0x442 JUMPI DUP1 PUSH4 0x8B26BFF9 EQ PUSH2 0x455 JUMPI DUP1 PUSH4 0x8DA5CB5B EQ PUSH2 0x468 JUMPI PUSH1 0x0 DUP1 REVERT JUMPDEST DUP1 PUSH4 0x41B3D185 GT PUSH2 0x1C9 JUMPI DUP1 PUSH4 0x63A846F8 GT PUSH2 0x18D JUMPI DUP1 PUSH4 0x63A846F8 EQ PUSH2 0x3B2 JUMPI DUP1 PUSH4 0x65E481E2 EQ PUSH2 0x3D5 JUMPI DUP1 PUSH4 0x715018A6 EQ PUSH2 0x3E8 JUMPI DUP1 PUSH4 0x783FD590 EQ PUSH2 0x3F0 JUMPI DUP1 PUSH4 0x7C568F6A EQ PUSH2 0x41E JUMPI PUSH1 0x0 DUP1 REVERT JUMPDEST DUP1 PUSH4 0x41B3D185 EQ PUSH2 0x367 JUMPI DUP1 PUSH4 0x41B90AF4 EQ PUSH2 0x370 JUMPI DUP1 PUSH4 0x44DF8E70 EQ PUSH2 0x383 JUMPI DUP1 PUSH4 0x510E87D0 EQ PUSH2 0x396 JUMPI DUP1 PUSH4 0x5312EA8E EQ PUSH2 0x39F JUMPI PUSH1 0x0 DUP1 REVERT JUMPDEST DUP1 PUSH4 0x223B3B7A GT PUSH2 0x210 JUMPI DUP1 PUSH4 0x223B3B7A EQ PUSH2 0x299 JUMPI DUP1 PUSH4 0x27EDE436 EQ PUSH2 0x2CC JUMPI DUP1 PUSH4 0x297457F1 EQ PUSH2 0x2DF JUMPI DUP1 PUSH4 0x30326C17 EQ PUSH2 0x310 JUMPI DUP1 PUSH4 0x3A4B66F1 EQ PUSH2 0x33C JUMPI PUSH1 0x0 DUP1 REVERT JUMPDEST DUP1 PUSH4 0x50584C7 EQ PUSH2 0x242 JUMPI DUP1 PUSH4 0xD61B519 EQ PUSH2 0x257 JUMPI DUP1 PUSH4 0x1703A018 EQ PUSH2 0x27D JUMPI DUP1 PUSH4 0x1D5592FE EQ PUSH2 0x286 JUMPI JUMPDEST PUSH1 0x0 DUP1 REVERT JUMPDEST PUSH2 0x255 PUSH2 0x250 CALLDATASIZE PUSH1 0x4 PUSH2 0x2103 JUMP JUMPDEST PUSH2 0x5A8 JUMP JUMPDEST STOP JUMPDEST PUSH2 0x26A PUSH2 0x265 CALLDATASIZE PUSH1 0x4 PUSH2 0x2103 JUMP JUMPDEST PUSH2 0x624 JUMP JUMPDEST PUSH1 0x40 MLOAD SWAP1 DUP2 MSTORE PUSH1 0x20 ADD JUMPDEST PUSH1 0x40 MLOAD DUP1 SWAP2 SUB SWAP1 RETURN JUMPDEST PUSH2 0x26A PUSH1 0x5 SLOAD DUP2 JUMP JUMPDEST PUSH2 0x255 PUSH2 0x294 CALLDATASIZE PUSH1 0x4 PUSH2 0x2178 JUMP JUMPDEST PUSH2 0x9A2 JUMP JUMPDEST PUSH2 0x2BC PUSH2 0x2A7 CALLDATASIZE PUSH1 0x4 PUSH2 0x222A JUMP JUMPDEST PUSH1 0x9 PUSH1 0x20 MSTORE PUSH1 0x0 SWAP1 DUP2 MSTORE PUSH1 0x40 SWAP1 KECCAK256 SLOAD PUSH1 0xFF AND DUP2 JUMP JUMPDEST PUSH1 0x40 MLOAD SWAP1 ISZERO ISZERO DUP2 MSTORE PUSH1 0x20 ADD PUSH2 0x274 JUMP JUMPDEST PUSH2 0x255 PUSH2 0x2DA CALLDATASIZE PUSH1 0x4 PUSH2 0x2178 JUMP JUMPDEST PUSH2 0xB2D JUMP JUMPDEST PUSH2 0x26A PUSH2 0x2ED CALLDATASIZE PUSH1 0x4 PUSH2 0x2247 JUMP JUMPDEST PUSH1 0x11 PUSH1 0x20 SWAP1 DUP2 MSTORE PUSH1 0x0 SWAP4 DUP5 MSTORE PUSH1 0x40 DUP1 DUP6 KECCAK256 DUP3 MSTORE SWAP3 DUP5 MSTORE DUP3 DUP5 KECCAK256 SWAP1 MSTORE DUP3 MSTORE SWAP1 KECCAK256 SLOAD DUP2 JUMP JUMPDEST PUSH2 0x323 PUSH2 0x31E CALLDATASIZE PUSH1 0x4 PUSH2 0x2103 JUMP JUMPDEST PUSH2 0xCB4 JUMP JUMPDEST PUSH1 0x40 MLOAD PUSH2 0x274 SWAP14 SWAP13 SWAP12 SWAP11 SWAP10 SWAP9 SWAP8 SWAP7 SWAP6 SWAP5 SWAP4 SWAP3 SWAP2 SWAP1 PUSH2 0x22D4 JUMP JUMPDEST PUSH1 0xB SLOAD PUSH2 0x34F SWAP1 PUSH1 0x1 PUSH1 0x1 PUSH1 0xA0 SHL SUB AND DUP2 JUMP JUMPDEST PUSH1 0x40 MLOAD PUSH1 0x1 PUSH1 0x1 PUSH1 0xA0 SHL SUB SWAP1 SWAP2 AND DUP2 MSTORE PUSH1 0x20 ADD PUSH2 0x274 JUMP JUMPDEST PUSH2 0x26A PUSH1 0x2 SLOAD DUP2 JUMP JUMPDEST PUSH2 0x255 PUSH2 0x37E CALLDATASIZE PUSH1 0x4 PUSH2 0x2103 JUMP JUMPDEST PUSH2 0xE2D JUMP JUMPDEST PUSH1 0xC SLOAD PUSH2 0x34F SWAP1 PUSH1 0x1 PUSH1 0x1 PUSH1 0xA0 SHL SUB AND DUP2 JUMP JUMPDEST PUSH2 0x26A PUSH1 0x4 SLOAD DUP2 JUMP JUMPDEST PUSH2 0x255 PUSH2 0x3AD CALLDATASIZE PUSH1 0x4 PUSH2 0x2103 JUMP JUMPDEST PUSH2 0xE95 JUMP JUMPDEST PUSH2 0x2BC PUSH2 0x3C0 CALLDATASIZE PUSH1 0x4 PUSH2 0x222A JUMP JUMPDEST PUSH1 0x8 PUSH1 0x20 MSTORE PUSH1 0x0 SWAP1 DUP2 MSTORE PUSH1 0x40 SWAP1 KECCAK256 SLOAD PUSH1 0xFF AND DUP2 JUMP JUMPDEST PUSH2 0x255 PUSH2 0x3E3 CALLDATASIZE PUSH1 0x4 PUSH2 0x23CE JUMP JUMPDEST PUSH2 0xEFE JUMP JUMPDEST PUSH2 0x255 PUSH2 0x117D JUMP JUMPDEST PUSH2 0x2BC PUSH2 0x3FE CALLDATASIZE PUSH1 0x4 PUSH2 0x2432 JUMP JUMPDEST PUSH1 0x12 PUSH1 0x20 SWAP1 DUP2 MSTORE PUSH1 0x0 SWAP3 DUP4 MSTORE PUSH1 0x40 DUP1 DUP5 KECCAK256 SWAP1 SWAP2 MSTORE SWAP1 DUP3 MSTORE SWAP1 KECCAK256 SLOAD PUSH1 0xFF AND DUP2 JUMP JUMPDEST PUSH2 0x26A PUSH1 0x1 SLOAD DUP2 JUMP JUMPDEST PUSH2 0x255 PUSH2 0x435 CALLDATASIZE PUSH1 0x4 PUSH2 0x2103 JUMP JUMPDEST PUSH2 0x11B3 JUMP JUMPDEST PUSH2 0x255 PUSH2 0x138A JUMP JUMPDEST PUSH2 0x255 PUSH2 0x450 CALLDATASIZE PUSH1 0x4 PUSH2 0x245E JUMP JUMPDEST PUSH2 0x13C8 JUMP JUMPDEST PUSH2 0x255 PUSH2 0x463 CALLDATASIZE PUSH1 0x4 PUSH2 0x2103 JUMP JUMPDEST PUSH2 0x16BF JUMP JUMPDEST PUSH1 0x0 SLOAD PUSH1 0x1 PUSH1 0x1 PUSH1 0xA0 SHL SUB AND PUSH2 0x34F JUMP JUMPDEST PUSH2 0x26A PUSH2 0x487 CALLDATASIZE PUSH1 0x4 PUSH2 0x2432 JUMP JUMPDEST PUSH1 0xD PUSH1 0x20 SWAP1 DUP2 MSTORE PUSH1 0x0 SWAP3 DUP4 MSTORE PUSH1 0x40 DUP1 DUP5 KECCAK256 SWAP1 SWAP2 MSTORE SWAP1 DUP3 MSTORE SWAP1 KECCAK256 SLOAD DUP2 JUMP JUMPDEST PUSH2 0x255 PUSH2 0x4B2 CALLDATASIZE PUSH1 0x4 PUSH2 0x2103 JUMP JUMPDEST PUSH2 0x1727 JUMP JUMPDEST PUSH2 0x255 PUSH2 0x4C5 CALLDATASIZE PUSH1 0x4 PUSH2 0x2103 JUMP JUMPDEST PUSH2 0x1756 JUMP JUMPDEST PUSH2 0x26A PUSH1 0x3 SLOAD DUP2 JUMP JUMPDEST PUSH2 0x255 PUSH2 0x4E1 CALLDATASIZE PUSH1 0x4 PUSH2 0x248A JUMP JUMPDEST PUSH2 0x17BE JUMP JUMPDEST PUSH2 0x255 PUSH2 0x4F4 CALLDATASIZE PUSH1 0x4 PUSH2 0x222A JUMP JUMPDEST PUSH2 0x1906 JUMP JUMPDEST PUSH2 0x26A PUSH1 0x6 SLOAD DUP2 JUMP JUMPDEST PUSH2 0x255 PUSH2 0x510 CALLDATASIZE PUSH1 0x4 PUSH2 0x2103 JUMP JUMPDEST PUSH2 0x1957 JUMP JUMPDEST PUSH2 0x26A PUSH1 0x7 SLOAD DUP2 JUMP JUMPDEST PUSH2 0x255 PUSH2 0x52C CALLDATASIZE PUSH1 0x4 PUSH2 0x248A JUMP JUMPDEST PUSH2 0x19BF JUMP JUMPDEST PUSH2 0x255 PUSH2 0x53F CALLDATASIZE PUSH1 0x4 PUSH2 0x2103 JUMP JUMPDEST PUSH2 0x1AE6 JUMP JUMPDEST PUSH2 0x255 PUSH2 0x552 CALLDATASIZE PUSH1 0x4 PUSH2 0x222A JUMP JUMPDEST PUSH2 0x1B4E JUMP JUMPDEST PUSH2 0x26A PUSH2 0x565 CALLDATASIZE PUSH1 0x4 PUSH2 0x2432 JUMP JUMPDEST PUSH1 0xE PUSH1 0x20 SWAP1 DUP2 MSTORE PUSH1 0x0 SWAP3 DUP4 MSTORE PUSH1 0x40 DUP1 DUP5 KECCAK256 SWAP1 SWAP2 MSTORE SWAP1 DUP3 MSTORE SWAP1 KECCAK256 SLOAD DUP2 JUMP JUMPDEST PUSH1 0xA SLOAD PUSH2 0x34F SWAP1 PUSH1 0x1 PUSH1 0x1 PUSH1 0xA0 SHL SUB AND DUP2 JUMP JUMPDEST PUSH2 0x255 PUSH2 0x5A3 CALLDATASIZE PUSH1 0x4 PUSH2 0x2103 JUMP JUMPDEST PUSH2 0x1BE9 JUMP JUMPDEST CALLER PUSH1 0x0 SWAP1 DUP2 MSTORE PUSH1 0x8 PUSH1 0x20 MSTORE PUSH1 0x40 SWAP1 KECCAK256 SLOAD PUSH1 0xFF AND PUSH2 0x5E0 JUMPI PUSH1 0x40 MLOAD PUSH3 0x461BCD PUSH1 0xE5 SHL DUP2 MSTORE PUSH1 0x4 ADD PUSH2 0x5D7 SWAP1 PUSH2 0x24AC JUMP JUMPDEST PUSH1 0x40 MLOAD DUP1 SWAP2 SUB SWAP1 REVERT JUMPDEST PUSH1 0x4 DUP2 SWAP1 SSTORE PUSH1 0x40 MLOAD PUSH32 0x150B13C3241261FB18489D675D278AB7418ADF509BB87EB751C4973B76805F93 SWAP1 PUSH2 0x619 SWAP1 CALLER SWAP1 DUP5 SWAP1 TIMESTAMP SWAP1 PUSH2 0x24D0 JUMP JUMPDEST PUSH1 0x40 MLOAD DUP1 SWAP2 SUB SWAP1 LOG1 POP JUMP JUMPDEST CALLER PUSH1 0x0 SWAP1 DUP2 MSTORE PUSH1 0x9 PUSH1 0x20 MSTORE PUSH1 0x40 DUP2 KECCAK256 SLOAD PUSH1 0xFF AND PUSH2 0x674 JUMPI PUSH1 0x40 MLOAD PUSH3 0x461BCD PUSH1 0xE5 SHL DUP2 MSTORE PUSH1 0x20 PUSH1 0x4 DUP3 ADD MSTORE PUSH1 0xE PUSH1 0x24 DUP3 ADD MSTORE PUSH14 0x27B7363C902B30B634B230BA37B9 PUSH1 0x91 SHL PUSH1 0x44 DUP3 ADD MSTORE PUSH1 0x64 ADD PUSH2 0x5D7 JUMP JUMPDEST PUSH1 0x0 DUP3 DUP2 MSTORE PUSH1 0x13 PUSH1 0x20 MSTORE PUSH1 0x40 SWAP1 KECCAK256 PUSH1 0x4 DUP2 ADD SLOAD PUSH1 0x3 EQ DUP1 PUSH2 0x699 JUMPI POP DUP1 PUSH1 0x4 ADD SLOAD PUSH1 0x5 EQ JUMPDEST PUSH2 0x6DD JUMPI PUSH1 0x40 MLOAD PUSH3 0x461BCD PUSH1 0xE5 SHL DUP2 MSTORE PUSH1 0x20 PUSH1 0x4 DUP3 ADD MSTORE PUSH1 0x15 PUSH1 0x24 DUP3 ADD MSTORE PUSH21 0x10D85B9D08195E1958DD5D19481C1C9BDC1BDCD85B PUSH1 0x5A SHL PUSH1 0x44 DUP3 ADD MSTORE PUSH1 0x64 ADD PUSH2 0x5D7 JUMP JUMPDEST PUSH1 0x4 DUP2 ADD SLOAD PUSH1 0x3 DUP2 SWAP1 SUB PUSH2 0x79D JUMPI TIMESTAMP DUP3 PUSH1 0xA ADD SLOAD LT DUP1 PUSH2 0x703 JUMPI POP PUSH1 0x2 SLOAD DUP3 PUSH1 0x3 ADD SLOAD LT ISZERO JUMPDEST PUSH2 0x742 JUMPI PUSH1 0x40 MLOAD PUSH3 0x461BCD PUSH1 0xE5 SHL DUP2 MSTORE PUSH1 0x20 PUSH1 0x4 DUP3 ADD MSTORE PUSH1 0x10 PUSH1 0x24 DUP3 ADD MSTORE PUSH16 0x43616E742061637469766520766F7465 PUSH1 0x80 SHL PUSH1 0x44 DUP3 ADD MSTORE PUSH1 0x64 ADD PUSH2 0x5D7 JUMP JUMPDEST PUSH1 0x3 DUP3 ADD SLOAD PUSH1 0x2 SLOAD DUP2 LT ISZERO PUSH2 0x76E JUMPI PUSH1 0xC SLOAD PUSH2 0x767 SWAP1 PUSH1 0x1 PUSH1 0x1 PUSH1 0xA0 SHL SUB AND DUP3 PUSH2 0x1C51 JUMP JUMPDEST PUSH1 0x4 DUP4 DUP2 ADD SSTORE JUMPDEST PUSH1 0x2 SLOAD DUP2 LT PUSH2 0x79B JUMPI PUSH1 0x5 PUSH1 0x4 DUP1 DUP6 ADD SWAP2 SWAP1 SWAP2 SSTORE TIMESTAMP PUSH1 0xA DUP6 ADD DUP2 SWAP1 SSTORE SWAP1 SLOAD PUSH2 0x795 SWAP2 PUSH2 0x1CFB JUMP JUMPDEST PUSH1 0xB DUP5 ADD SSTORE JUMPDEST POP JUMPDEST DUP1 PUSH1 0x5 SUB PUSH2 0x958 JUMPI TIMESTAMP DUP3 PUSH1 0xB ADD SLOAD LT PUSH2 0x7ED JUMPI PUSH1 0x40 MLOAD PUSH3 0x461BCD PUSH1 0xE5 SHL DUP2 MSTORE PUSH1 0x20 PUSH1 0x4 DUP3 ADD MSTORE PUSH1 0x12 PUSH1 0x24 DUP3 ADD MSTORE PUSH18 0x43616E742061637469766520737461747573 PUSH1 0x70 SHL PUSH1 0x44 DUP3 ADD MSTORE PUSH1 0x64 ADD PUSH2 0x5D7 JUMP JUMPDEST PUSH1 0xB SLOAD PUSH1 0x40 MLOAD PUSH4 0x1526FE27 PUSH1 0xE0 SHL DUP2 MSTORE PUSH1 0x0 PUSH1 0x4 DUP3 ADD DUP2 SWAP1 MSTORE SWAP2 PUSH1 0x1 PUSH1 0x1 PUSH1 0xA0 SHL SUB AND SWAP1 PUSH4 0x1526FE27 SWAP1 PUSH1 0x24 ADD PUSH1 0xA0 PUSH1 0x40 MLOAD DUP1 DUP4 SUB DUP2 DUP7 GAS STATICCALL ISZERO DUP1 ISZERO PUSH2 0x837 JUMPI RETURNDATASIZE PUSH1 0x0 DUP1 RETURNDATACOPY RETURNDATASIZE PUSH1 0x0 REVERT JUMPDEST POP POP POP POP PUSH1 0x40 MLOAD RETURNDATASIZE PUSH1 0x1F NOT PUSH1 0x1F DUP3 ADD AND DUP3 ADD DUP1 PUSH1 0x40 MSTORE POP DUP2 ADD SWAP1 PUSH2 0x85B SWAP2 SWAP1 PUSH2 0x24F1 JUMP JUMPDEST SWAP5 POP POP POP POP POP PUSH1 0x0 DUP4 PUSH1 0x7 ADD SLOAD DUP5 PUSH1 0x5 ADD SLOAD DUP6 PUSH1 0x6 ADD SLOAD PUSH2 0x87C SWAP2 SWAP1 PUSH2 0x2550 JUMP JUMPDEST PUSH2 0x886 SWAP2 SWAP1 PUSH2 0x2550 JUMP JUMPDEST SWAP1 POP PUSH1 0x0 PUSH2 0x8A0 DUP4 PUSH2 0x89A DUP5 PUSH2 0x3E8 PUSH2 0x1D0E JUMP JUMPDEST SWAP1 PUSH2 0x1D1A JUMP JUMPDEST SWAP1 POP PUSH1 0x0 DUP3 ISZERO PUSH2 0x8CC JUMPI PUSH2 0x8C7 DUP4 PUSH2 0x89A PUSH2 0x3E8 DUP10 PUSH1 0x7 ADD SLOAD PUSH2 0x1D0E SWAP1 SWAP2 SWAP1 PUSH4 0xFFFFFFFF AND JUMP JUMPDEST PUSH2 0x8CF JUMP JUMPDEST PUSH1 0x64 JUMPDEST SWAP1 POP PUSH1 0x5 SLOAD DUP3 LT ISZERO DUP1 ISZERO PUSH2 0x8E4 JUMPI POP PUSH1 0x6 SLOAD DUP2 LT JUMPDEST ISZERO PUSH2 0x92D JUMPI PUSH1 0x0 PUSH2 0x908 DUP5 PUSH2 0x89A PUSH2 0x3E8 DUP11 PUSH1 0x5 ADD SLOAD PUSH2 0x1D0E SWAP1 SWAP2 SWAP1 PUSH4 0xFFFFFFFF AND JUMP JUMPDEST SWAP1 POP PUSH1 0x7 SLOAD DUP2 LT PUSH2 0x91F JUMPI PUSH1 0x6 PUSH1 0x4 DUP9 ADD SSTORE PUSH2 0x927 JUMP JUMPDEST PUSH1 0x7 PUSH1 0x4 DUP9 ADD SSTORE JUMPDEST POP PUSH2 0x94F JUMP JUMPDEST PUSH1 0x8 PUSH1 0x4 DUP8 ADD SSTORE PUSH1 0xC SLOAD PUSH1 0x3 DUP8 ADD SLOAD PUSH2 0x94F SWAP2 PUSH1 0x1 PUSH1 0x1 PUSH1 0xA0 SHL SUB AND SWAP1 PUSH2 0x1C51 JUMP JUMPDEST POP POP POP PUSH1 0x8 DUP4 ADD SSTORE JUMPDEST PUSH1 0x4 DUP3 ADD SLOAD PUSH1 0x40 DUP1 MLOAD DUP7 DUP2 MSTORE PUSH1 0x20 DUP2 ADD SWAP3 SWAP1 SWAP3 MSTORE PUSH32 0x26111D131AC2E5F1D2D00D7503064C00348006D76F8C797B9E01F11DC6D1A0B SWAP2 ADD PUSH1 0x40 MLOAD DUP1 SWAP2 SUB SWAP1 LOG1 POP PUSH1 0x4 ADD SLOAD SWAP3 SWAP2 POP POP JUMP JUMPDEST PUSH1 0x0 SLOAD PUSH1 0x1 PUSH1 0x1 PUSH1 0xA0 SHL SUB AND CALLER EQ PUSH2 0x9CC JUMPI PUSH1 0x40 MLOAD PUSH3 0x461BCD PUSH1 0xE5 SHL DUP2 MSTORE PUSH1 0x4 ADD PUSH2 0x5D7 SWAP1 PUSH2 0x2568 JUMP JUMPDEST PUSH1 0x0 JUMPDEST DUP2 MLOAD DUP2 LT ISZERO PUSH2 0xB29 JUMPI PUSH1 0x9 PUSH1 0x0 DUP4 DUP4 DUP2 MLOAD DUP2 LT PUSH2 0x9EE JUMPI PUSH2 0x9EE PUSH2 0x259D JUMP JUMPDEST PUSH1 0x20 MUL PUSH1 0x20 ADD ADD MLOAD PUSH1 0x1 PUSH1 0x1 PUSH1 0xA0 SHL SUB AND PUSH1 0x1 PUSH1 0x1 PUSH1 0xA0 SHL SUB AND DUP2 MSTORE PUSH1 0x20 ADD SWAP1 DUP2 MSTORE PUSH1 0x20 ADD PUSH1 0x0 KECCAK256 PUSH1 0x0 SWAP1 SLOAD SWAP1 PUSH2 0x100 EXP SWAP1 DIV PUSH1 0xFF AND ISZERO PUSH1 0x9 PUSH1 0x0 DUP5 DUP5 DUP2 MLOAD DUP2 LT PUSH2 0xA3B JUMPI PUSH2 0xA3B PUSH2 0x259D JUMP JUMPDEST PUSH1 0x20 MUL PUSH1 0x20 ADD ADD MLOAD PUSH1 0x1 PUSH1 0x1 PUSH1 0xA0 SHL SUB AND PUSH1 0x1 PUSH1 0x1 PUSH1 0xA0 SHL SUB AND DUP2 MSTORE PUSH1 0x20 ADD SWAP1 DUP2 MSTORE PUSH1 0x20 ADD PUSH1 0x0 KECCAK256 PUSH1 0x0 PUSH2 0x100 EXP DUP2 SLOAD DUP2 PUSH1 0xFF MUL NOT AND SWAP1 DUP4 ISZERO ISZERO MUL OR SWAP1 SSTORE POP PUSH32 0xD6199EC46577060859008F25FAC746382B09AB4DE2E0D0129CA032400A156A20 DUP3 DUP3 DUP2 MLOAD DUP2 LT PUSH2 0xAAD JUMPI PUSH2 0xAAD PUSH2 0x259D JUMP JUMPDEST PUSH1 0x20 MUL PUSH1 0x20 ADD ADD MLOAD TIMESTAMP PUSH1 0x9 PUSH1 0x0 DUP7 DUP7 DUP2 MLOAD DUP2 LT PUSH2 0xACC JUMPI PUSH2 0xACC PUSH2 0x259D JUMP JUMPDEST PUSH1 0x20 SWAP1 DUP2 MUL SWAP2 SWAP1 SWAP2 ADD DUP2 ADD MLOAD PUSH1 0x1 PUSH1 0x1 PUSH1 0xA0 SHL SUB SWAP1 DUP2 AND DUP4 MSTORE DUP3 DUP3 ADD SWAP4 SWAP1 SWAP4 MSTORE PUSH1 0x40 SWAP2 DUP3 ADD PUSH1 0x0 KECCAK256 SLOAD DUP3 MLOAD SWAP6 SWAP1 SWAP4 AND DUP6 MSTORE DUP5 ADD SWAP3 SWAP1 SWAP3 MSTORE PUSH1 0xFF AND ISZERO ISZERO SWAP1 DUP3 ADD MSTORE PUSH1 0x60 ADD PUSH1 0x40 MLOAD DUP1 SWAP2 SUB SWAP1 LOG1 DUP1 PUSH2 0xB21 DUP2 PUSH2 0x25B3 JUMP JUMPDEST SWAP2 POP POP PUSH2 0x9CF JUMP JUMPDEST POP POP JUMP JUMPDEST PUSH1 0x0 SLOAD PUSH1 0x1 PUSH1 0x1 PUSH1 0xA0 SHL SUB AND CALLER EQ PUSH2 0xB57 JUMPI PUSH1 0x40 MLOAD PUSH3 0x461BCD PUSH1 0xE5 SHL DUP2 MSTORE PUSH1 0x4 ADD PUSH2 0x5D7 SWAP1 PUSH2 0x2568 JUMP JUMPDEST PUSH1 0x0 JUMPDEST DUP2 MLOAD DUP2 LT ISZERO PUSH2 0xB29 JUMPI PUSH1 0x8 PUSH1 0x0 DUP4 DUP4 DUP2 MLOAD DUP2 LT PUSH2 0xB79 JUMPI PUSH2 0xB79 PUSH2 0x259D JUMP JUMPDEST PUSH1 0x20 MUL PUSH1 0x20 ADD ADD MLOAD PUSH1 0x1 PUSH1 0x1 PUSH1 0xA0 SHL SUB AND PUSH1 0x1 PUSH1 0x1 PUSH1 0xA0 SHL SUB AND DUP2 MSTORE PUSH1 0x20 ADD SWAP1 DUP2 MSTORE PUSH1 0x20 ADD PUSH1 0x0 KECCAK256 PUSH1 0x0 SWAP1 SLOAD SWAP1 PUSH2 0x100 EXP SWAP1 DIV PUSH1 0xFF AND ISZERO PUSH1 0x8 PUSH1 0x0 DUP5 DUP5 DUP2 MLOAD DUP2 LT PUSH2 0xBC6 JUMPI PUSH2 0xBC6 PUSH2 0x259D JUMP JUMPDEST PUSH1 0x20 MUL PUSH1 0x20 ADD ADD MLOAD PUSH1 0x1 PUSH1 0x1 PUSH1 0xA0 SHL SUB AND PUSH1 0x1 PUSH1 0x1 PUSH1 0xA0 SHL SUB AND DUP2 MSTORE PUSH1 0x20 ADD SWAP1 DUP2 MSTORE PUSH1 0x20 ADD PUSH1 0x0 KECCAK256 PUSH1 0x0 PUSH2 0x100 EXP DUP2 SLOAD DUP2 PUSH1 0xFF MUL NOT AND SWAP1 DUP4 ISZERO ISZERO MUL OR SWAP1 SSTORE POP PUSH32 0x546B4A40EEDC906EF1F3158A8308F9A144826E49085ECDF4FC62F94EB6BCBB73 DUP3 DUP3 DUP2 MLOAD DUP2 LT PUSH2 0xC38 JUMPI PUSH2 0xC38 PUSH2 0x259D JUMP JUMPDEST PUSH1 0x20 MUL PUSH1 0x20 ADD ADD MLOAD TIMESTAMP PUSH1 0x9 PUSH1 0x0 DUP7 DUP7 DUP2 MLOAD DUP2 LT PUSH2 0xC57 JUMPI PUSH2 0xC57 PUSH2 0x259D JUMP JUMPDEST PUSH1 0x20 SWAP1 DUP2 MUL SWAP2 SWAP1 SWAP2 ADD DUP2 ADD MLOAD PUSH1 0x1 PUSH1 0x1 PUSH1 0xA0 SHL SUB SWAP1 DUP2 AND DUP4 MSTORE DUP3 DUP3 ADD SWAP4 SWAP1 SWAP4 MSTORE PUSH1 0x40 SWAP2 DUP3 ADD PUSH1 0x0 KECCAK256 SLOAD DUP3 MLOAD SWAP6 SWAP1 SWAP4 AND DUP6 MSTORE DUP5 ADD SWAP3 SWAP1 SWAP3 MSTORE PUSH1 0xFF AND ISZERO ISZERO SWAP1 DUP3 ADD MSTORE PUSH1 0x60 ADD PUSH1 0x40 MLOAD DUP1 SWAP2 SUB SWAP1 LOG1 DUP1 PUSH2 0xCAC DUP2 PUSH2 0x25B3 JUMP JUMPDEST SWAP2 POP POP PUSH2 0xB5A JUMP JUMPDEST PUSH1 0x13 PUSH1 0x20 MSTORE PUSH1 0x0 SWAP1 DUP2 MSTORE PUSH1 0x40 SWAP1 KECCAK256 DUP1 SLOAD PUSH1 0x1 DUP3 ADD DUP1 SLOAD PUSH1 0x1 PUSH1 0x1 PUSH1 0xA0 SHL SUB SWAP1 SWAP3 AND SWAP3 SWAP2 PUSH2 0xCE0 SWAP1 PUSH2 0x25CC JUMP JUMPDEST DUP1 PUSH1 0x1F ADD PUSH1 0x20 DUP1 SWAP2 DIV MUL PUSH1 0x20 ADD PUSH1 0x40 MLOAD SWAP1 DUP2 ADD PUSH1 0x40 MSTORE DUP1 SWAP3 SWAP2 SWAP1 DUP2 DUP2 MSTORE PUSH1 0x20 ADD DUP3 DUP1 SLOAD PUSH2 0xD0C SWAP1 PUSH2 0x25CC JUMP JUMPDEST DUP1 ISZERO PUSH2 0xD59 JUMPI DUP1 PUSH1 0x1F LT PUSH2 0xD2E JUMPI PUSH2 0x100 DUP1 DUP4 SLOAD DIV MUL DUP4 MSTORE SWAP2 PUSH1 0x20 ADD SWAP2 PUSH2 0xD59 JUMP JUMPDEST DUP3 ADD SWAP2 SWAP1 PUSH1 0x0 MSTORE PUSH1 0x20 PUSH1 0x0 KECCAK256 SWAP1 JUMPDEST DUP2 SLOAD DUP2 MSTORE SWAP1 PUSH1 0x1 ADD SWAP1 PUSH1 0x20 ADD DUP1 DUP4 GT PUSH2 0xD3C JUMPI DUP3 SWAP1 SUB PUSH1 0x1F AND DUP3 ADD SWAP2 JUMPDEST POP POP POP POP POP SWAP1 DUP1 PUSH1 0x2 ADD DUP1 SLOAD PUSH2 0xD6E SWAP1 PUSH2 0x25CC JUMP JUMPDEST DUP1 PUSH1 0x1F ADD PUSH1 0x20 DUP1 SWAP2 DIV MUL PUSH1 0x20 ADD PUSH1 0x40 MLOAD SWAP1 DUP2 ADD PUSH1 0x40 MSTORE DUP1 SWAP3 SWAP2 SWAP1 DUP2 DUP2 MSTORE PUSH1 0x20 ADD DUP3 DUP1 SLOAD PUSH2 0xD9A SWAP1 PUSH2 0x25CC JUMP JUMPDEST DUP1 ISZERO PUSH2 0xDE7 JUMPI DUP1 PUSH1 0x1F LT PUSH2 0xDBC JUMPI PUSH2 0x100 DUP1 DUP4 SLOAD DIV MUL DUP4 MSTORE SWAP2 PUSH1 0x20 ADD SWAP2 PUSH2 0xDE7 JUMP JUMPDEST DUP3 ADD SWAP2 SWAP1 PUSH1 0x0 MSTORE PUSH1 0x20 PUSH1 0x0 KECCAK256 SWAP1 JUMPDEST DUP2 SLOAD DUP2 MSTORE SWAP1 PUSH1 0x1 ADD SWAP1 PUSH1 0x20 ADD DUP1 DUP4 GT PUSH2 0xDCA JUMPI DUP3 SWAP1 SUB PUSH1 0x1F AND DUP3 ADD SWAP2 JUMPDEST POP POP POP POP POP SWAP1 DUP1 PUSH1 0x3 ADD SLOAD SWAP1 DUP1 PUSH1 0x4 ADD SLOAD SWAP1 DUP1 PUSH1 0x5 ADD SLOAD SWAP1 DUP1 PUSH1 0x6 ADD SLOAD SWAP1 DUP1 PUSH1 0x7 ADD SLOAD SWAP1 DUP1 PUSH1 0x8 ADD SLOAD SWAP1 DUP1 PUSH1 0x9 ADD SLOAD SWAP1 DUP1 PUSH1 0xA ADD SLOAD SWAP1 DUP1 PUSH1 0xB ADD SLOAD SWAP1 DUP1 PUSH1 0xC ADD SLOAD SWAP1 POP DUP14 JUMP JUMPDEST CALLER PUSH1 0x0 SWAP1 DUP2 MSTORE PUSH1 0x8 PUSH1 0x20 MSTORE PUSH1 0x40 SWAP1 KECCAK256 SLOAD PUSH1 0xFF AND PUSH2 0xE5C JUMPI PUSH1 0x40 MLOAD PUSH3 0x461BCD PUSH1 0xE5 SHL DUP2 MSTORE PUSH1 0x4 ADD PUSH2 0x5D7 SWAP1 PUSH2 0x24AC JUMP JUMPDEST PUSH1 0x7 DUP2 SWAP1 SSTORE PUSH1 0x40 MLOAD PUSH32 0xD0EC5747DDBCDEFDAFB542C9044C452ECB6A80C311172D2A0F23A672C0745358 SWAP1 PUSH2 0x619 SWAP1 CALLER SWAP1 DUP5 SWAP1 TIMESTAMP SWAP1 PUSH2 0x24D0 JUMP JUMPDEST PUSH1 0x0 SLOAD PUSH1 0x1 PUSH1 0x1 PUSH1 0xA0 SHL SUB AND CALLER EQ PUSH2 0xEBF JUMPI PUSH1 0x40 MLOAD PUSH3 0x461BCD PUSH1 0xE5 SHL DUP2 MSTORE PUSH1 0x4 ADD PUSH2 0x5D7 SWAP1 PUSH2 0x2568 JUMP JUMPDEST PUSH2 0xEC9 CALLER DUP3 PUSH2 0x1C51 JUMP JUMPDEST PUSH1 0x40 DUP1 MLOAD DUP3 DUP2 MSTORE TIMESTAMP PUSH1 0x20 DUP3 ADD MSTORE PUSH32 0xB073E6FBD06D7557D2C82F414FEE57DE28E7FB517ECC0AFDD6B1FC57034A9CB8 SWAP2 ADD PUSH2 0x619 JUMP JUMPDEST PUSH1 0x10 SLOAD PUSH1 0xFF AND ISZERO PUSH2 0xF49 JUMPI PUSH1 0x40 MLOAD PUSH3 0x461BCD PUSH1 0xE5 SHL DUP2 MSTORE PUSH1 0x20 PUSH1 0x4 DUP3 ADD MSTORE PUSH1 0x15 PUSH1 0x24 DUP3 ADD MSTORE PUSH21 0x46656174757265206E6F7420617661696C61626C65 PUSH1 0x58 SHL PUSH1 0x44 DUP3 ADD MSTORE PUSH1 0x64 ADD PUSH2 0x5D7 JUMP JUMPDEST PUSH1 0x1 PUSH1 0xF PUSH1 0x0 DUP3 DUP3 SLOAD PUSH2 0xF5C SWAP2 SWAP1 PUSH2 0x2550 JUMP JUMPDEST SWAP1 SWAP2 SSTORE POP POP PUSH1 0x40 DUP1 MLOAD PUSH2 0x1A0 DUP2 ADD DUP3 MSTORE CALLER DUP2 MSTORE PUSH1 0x20 DUP1 DUP3 ADD DUP6 DUP2 MSTORE DUP3 DUP5 ADD DUP6 SWAP1 MSTORE PUSH1 0x1 DUP1 SLOAD PUSH1 0x60 DUP6 ADD MSTORE PUSH1 0x80 DUP5 ADD DUP2 SWAP1 MSTORE PUSH1 0x0 PUSH1 0xA0 DUP6 ADD DUP2 SWAP1 MSTORE PUSH1 0xC0 DUP6 ADD DUP2 SWAP1 MSTORE PUSH1 0xE0 DUP6 ADD DUP2 SWAP1 MSTORE PUSH2 0x100 DUP6 ADD DUP2 SWAP1 MSTORE PUSH2 0x120 DUP6 ADD DUP2 SWAP1 MSTORE PUSH2 0x140 DUP6 ADD DUP2 SWAP1 MSTORE PUSH2 0x160 DUP6 ADD DUP2 SWAP1 MSTORE TIMESTAMP PUSH2 0x180 DUP7 ADD MSTORE PUSH1 0xF SLOAD DUP2 MSTORE PUSH1 0x13 DUP5 MSTORE SWAP5 SWAP1 SWAP5 KECCAK256 DUP4 MLOAD DUP2 SLOAD PUSH1 0x1 PUSH1 0x1 PUSH1 0xA0 SHL SUB NOT AND PUSH1 0x1 PUSH1 0x1 PUSH1 0xA0 SHL SUB SWAP1 SWAP2 AND OR DUP2 SSTORE SWAP1 MLOAD DUP1 MLOAD SWAP4 SWAP5 SWAP2 SWAP4 PUSH2 0x100E SWAP4 SWAP3 DUP6 ADD SWAP3 SWAP2 SWAP1 SWAP2 ADD SWAP1 PUSH2 0x206A JUMP JUMPDEST POP PUSH1 0x40 DUP3 ADD MLOAD DUP1 MLOAD PUSH2 0x102A SWAP2 PUSH1 0x2 DUP5 ADD SWAP2 PUSH1 0x20 SWAP1 SWAP2 ADD SWAP1 PUSH2 0x206A JUMP JUMPDEST POP PUSH1 0x60 DUP3 ADD MLOAD PUSH1 0x3 DUP3 ADD SSTORE PUSH1 0x80 DUP3 ADD MLOAD PUSH1 0x4 DUP3 ADD SSTORE PUSH1 0xA0 DUP3 ADD MLOAD PUSH1 0x5 DUP3 ADD SSTORE PUSH1 0xC0 DUP3 ADD MLOAD PUSH1 0x6 DUP3 ADD SSTORE PUSH1 0xE0 DUP3 ADD MLOAD PUSH1 0x7 DUP3 ADD SSTORE PUSH2 0x100 DUP3 ADD MLOAD PUSH1 0x8 DUP3 ADD SSTORE PUSH2 0x120 DUP3 ADD MLOAD PUSH1 0x9 DUP3 ADD SSTORE PUSH2 0x140 DUP3 ADD MLOAD PUSH1 0xA DUP3 ADD SSTORE PUSH2 0x160 DUP3 ADD MLOAD PUSH1 0xB DUP3 ADD SSTORE PUSH2 0x180 SWAP1 SWAP2 ADD MLOAD PUSH1 0xC SWAP1 SWAP2 ADD SSTORE PUSH1 0x1 SLOAD CALLER PUSH1 0x0 SWAP1 DUP2 MSTORE PUSH1 0xD PUSH1 0x20 SWAP1 DUP2 MSTORE PUSH1 0x40 DUP1 DUP4 KECCAK256 PUSH1 0xF SLOAD DUP5 MSTORE SWAP1 SWAP2 MSTORE DUP2 KECCAK256 DUP1 SLOAD SWAP1 SWAP2 SWAP1 PUSH2 0x10C5 SWAP1 DUP5 SWAP1 PUSH2 0x2550 JUMP JUMPDEST SWAP1 SWAP2 SSTORE POP POP PUSH1 0x1 SLOAD PUSH1 0xA SLOAD PUSH2 0x10E9 SWAP2 PUSH1 0x1 PUSH1 0x1 PUSH1 0xA0 SHL SUB SWAP1 SWAP2 AND SWAP1 CALLER SWAP1 ADDRESS SWAP1 PUSH2 0x1D26 JUMP JUMPDEST PUSH1 0xF SLOAD PUSH1 0x1 SLOAD PUSH1 0x40 DUP1 MLOAD CALLER DUP2 MSTORE PUSH1 0x20 DUP2 ADD SWAP4 SWAP1 SWAP4 MSTORE DUP3 ADD MSTORE TIMESTAMP PUSH1 0x60 DUP3 ADD MSTORE PUSH32 0x91C606A31ADB3414DBFD68DE98937E47ED510502BAFAFDBD10EB54FA1046010C SWAP1 PUSH1 0x80 ADD PUSH1 0x40 MLOAD DUP1 SWAP2 SUB SWAP1 LOG1 PUSH32 0x953B5CB5CB62DD48F88A32A2946BA9B41DAF1FC13C27A171ADC50CEC124FD543 PUSH1 0xF SLOAD CALLER DUP5 DUP5 PUSH1 0x1 SLOAD TIMESTAMP PUSH1 0x40 MLOAD PUSH2 0x1171 SWAP7 SWAP6 SWAP5 SWAP4 SWAP3 SWAP2 SWAP1 PUSH2 0x2606 JUMP JUMPDEST PUSH1 0x40 MLOAD DUP1 SWAP2 SUB SWAP1 LOG1 POP POP JUMP JUMPDEST PUSH1 0x0 SLOAD PUSH1 0x1 PUSH1 0x1 PUSH1 0xA0 SHL SUB AND CALLER EQ PUSH2 0x11A7 JUMPI PUSH1 0x40 MLOAD PUSH3 0x461BCD PUSH1 0xE5 SHL DUP2 MSTORE PUSH1 0x4 ADD PUSH2 0x5D7 SWAP1 PUSH2 0x2568 JUMP JUMPDEST PUSH2 0x11B1 PUSH1 0x0 PUSH2 0x1D97 JUMP JUMPDEST JUMP JUMPDEST PUSH1 0x0 DUP2 DUP2 MSTORE PUSH1 0x13 PUSH1 0x20 MSTORE PUSH1 0x40 SWAP1 KECCAK256 PUSH1 0x4 DUP2 ADD SLOAD PUSH1 0x6 EQ DUP1 PUSH2 0x11D8 JUMPI POP DUP1 PUSH1 0x4 ADD SLOAD PUSH1 0x7 EQ JUMPDEST PUSH2 0x1224 JUMPI PUSH1 0x40 MLOAD PUSH3 0x461BCD PUSH1 0xE5 SHL DUP2 MSTORE PUSH1 0x20 PUSH1 0x4 DUP3 ADD MSTORE PUSH1 0x1F PUSH1 0x24 DUP3 ADD MSTORE PUSH32 0x43616E7420776974686472617720666F7220746869732050726F706F73616C00 PUSH1 0x44 DUP3 ADD MSTORE PUSH1 0x64 ADD PUSH2 0x5D7 JUMP JUMPDEST CALLER PUSH1 0x0 SWAP1 DUP2 MSTORE PUSH1 0x12 PUSH1 0x20 SWAP1 DUP2 MSTORE PUSH1 0x40 DUP1 DUP4 KECCAK256 DUP6 DUP5 MSTORE SWAP1 SWAP2 MSTORE SWAP1 KECCAK256 SLOAD PUSH1 0xFF AND ISZERO PUSH2 0x129B JUMPI PUSH1 0x40 MLOAD PUSH3 0x461BCD PUSH1 0xE5 SHL DUP2 MSTORE PUSH1 0x20 PUSH1 0x4 DUP3 ADD MSTORE PUSH1 0x24 DUP1 DUP3 ADD MSTORE PUSH32 0x596F7520686176652077697468647261776E20666F7220746869732050726F70 PUSH1 0x44 DUP3 ADD MSTORE PUSH4 0x1BDCD85B PUSH1 0xE2 SHL PUSH1 0x64 DUP3 ADD MSTORE PUSH1 0x84 ADD PUSH2 0x5D7 JUMP JUMPDEST CALLER PUSH1 0x0 SWAP1 DUP2 MSTORE PUSH1 0xD PUSH1 0x20 SWAP1 DUP2 MSTORE PUSH1 0x40 DUP1 DUP4 KECCAK256 DUP6 DUP5 MSTORE SWAP1 SWAP2 MSTORE SWAP1 KECCAK256 SLOAD DUP1 PUSH2 0x130F JUMPI PUSH1 0x40 MLOAD PUSH3 0x461BCD PUSH1 0xE5 SHL DUP2 MSTORE PUSH1 0x20 PUSH1 0x4 DUP3 ADD MSTORE PUSH1 0x23 PUSH1 0x24 DUP3 ADD MSTORE PUSH32 0x4E6F7420666F756E64206465706F73697420666F7220746869732050726F706F PUSH1 0x44 DUP3 ADD MSTORE PUSH3 0x1CD85B PUSH1 0xEA SHL PUSH1 0x64 DUP3 ADD MSTORE PUSH1 0x84 ADD PUSH2 0x5D7 JUMP JUMPDEST CALLER PUSH1 0x0 DUP2 DUP2 MSTORE PUSH1 0x12 PUSH1 0x20 SWAP1 DUP2 MSTORE PUSH1 0x40 DUP1 DUP4 KECCAK256 DUP8 DUP5 MSTORE SWAP1 SWAP2 MSTORE SWAP1 KECCAK256 DUP1 SLOAD PUSH1 0xFF NOT AND PUSH1 0x1 OR SWAP1 SSTORE PUSH2 0x133E SWAP1 DUP3 PUSH2 0x1C51 JUMP JUMPDEST PUSH1 0x40 DUP1 MLOAD DUP5 DUP2 MSTORE CALLER PUSH1 0x20 DUP3 ADD MSTORE SWAP1 DUP2 ADD DUP3 SWAP1 MSTORE TIMESTAMP PUSH1 0x60 DUP3 ADD MSTORE PUSH32 0xA311BFFB0586D2AC1153012E4261C95778FE16B8E783A3044ED33FAFB919E3B9 SWAP1 PUSH1 0x80 ADD JUMPDEST PUSH1 0x40 MLOAD DUP1 SWAP2 SUB SWAP1 LOG1 POP POP POP JUMP JUMPDEST PUSH1 0x0 SLOAD PUSH1 0x1 PUSH1 0x1 PUSH1 0xA0 SHL SUB AND CALLER EQ PUSH2 0x13B4 JUMPI PUSH1 0x40 MLOAD PUSH3 0x461BCD PUSH1 0xE5 SHL DUP2 MSTORE PUSH1 0x4 ADD PUSH2 0x5D7 SWAP1 PUSH2 0x2568 JUMP JUMPDEST PUSH1 0x10 DUP1 SLOAD PUSH1 0xFF NOT DUP2 AND PUSH1 0xFF SWAP1 SWAP2 AND ISZERO OR SWAP1 SSTORE JUMP JUMPDEST PUSH1 0x0 DUP4 DUP2 MSTORE PUSH1 0x13 PUSH1 0x20 MSTORE PUSH1 0x40 SWAP1 KECCAK256 PUSH1 0x4 DUP2 ADD SLOAD PUSH1 0x5 EQ PUSH2 0x1416 JUMPI PUSH1 0x40 MLOAD PUSH3 0x461BCD PUSH1 0xE5 SHL DUP2 MSTORE PUSH1 0x20 PUSH1 0x4 DUP3 ADD MSTORE PUSH1 0x9 PUSH1 0x24 DUP3 ADD MSTORE PUSH9 0x43616E7420566F7465 PUSH1 0xB8 SHL PUSH1 0x44 DUP3 ADD MSTORE PUSH1 0x64 ADD PUSH2 0x5D7 JUMP JUMPDEST TIMESTAMP DUP2 PUSH1 0x9 ADD SLOAD LT DUP1 ISZERO PUSH2 0x142C JUMPI POP TIMESTAMP DUP2 PUSH1 0xB ADD SLOAD GT JUMPDEST PUSH2 0x1448 JUMPI PUSH1 0x40 MLOAD PUSH3 0x461BCD PUSH1 0xE5 SHL DUP2 MSTORE PUSH1 0x4 ADD PUSH2 0x5D7 SWAP1 PUSH2 0x2658 JUMP JUMPDEST DUP2 PUSH1 0x6 EQ DUP1 PUSH2 0x1457 JUMPI POP DUP2 PUSH1 0x7 EQ JUMPDEST DUP1 PUSH2 0x1462 JUMPI POP DUP2 PUSH1 0x8 EQ JUMPDEST PUSH2 0x149F JUMPI PUSH1 0x40 MLOAD PUSH3 0x461BCD PUSH1 0xE5 SHL DUP2 MSTORE PUSH1 0x20 PUSH1 0x4 DUP3 ADD MSTORE PUSH1 0xE PUSH1 0x24 DUP3 ADD MSTORE PUSH14 0x159BDD19481B9BDD08199BDD5B99 PUSH1 0x92 SHL PUSH1 0x44 DUP3 ADD MSTORE PUSH1 0x64 ADD PUSH2 0x5D7 JUMP JUMPDEST PUSH1 0xB SLOAD PUSH1 0x40 MLOAD PUSH4 0x93F1A40B PUSH1 0xE0 SHL DUP2 MSTORE PUSH1 0x0 PUSH1 0x4 DUP3 ADD DUP2 SWAP1 MSTORE CALLER PUSH1 0x24 DUP4 ADD MSTORE SWAP2 PUSH1 0x1 PUSH1 0x1 PUSH1 0xA0 SHL SUB AND SWAP1 PUSH4 0x93F1A40B SWAP1 PUSH1 0x44 ADD PUSH1 0x60 PUSH1 0x40 MLOAD DUP1 DUP4 SUB DUP2 DUP7 GAS STATICCALL ISZERO DUP1 ISZERO PUSH2 0x14EF JUMPI RETURNDATASIZE PUSH1 0x0 DUP1 RETURNDATACOPY RETURNDATASIZE PUSH1 0x0 REVERT JUMPDEST POP POP POP POP PUSH1 0x40 MLOAD RETURNDATASIZE PUSH1 0x1F NOT PUSH1 0x1F DUP3 ADD AND DUP3 ADD DUP1 PUSH1 0x40 MSTORE POP DUP2 ADD SWAP1 PUSH2 0x1513 SWAP2 SWAP1 PUSH2 0x26A1 JUMP JUMPDEST POP POP CALLER PUSH1 0x0 SWAP1 DUP2 MSTORE PUSH1 0xE PUSH1 0x20 SWAP1 DUP2 MSTORE PUSH1 0x40 DUP1 DUP4 KECCAK256 DUP10 DUP5 MSTORE SWAP1 SWAP2 MSTORE SWAP1 KECCAK256 SLOAD SWAP1 SWAP2 POP PUSH2 0x153D SWAP1 DUP6 PUSH2 0x1CFB JUMP JUMPDEST DUP2 LT ISZERO PUSH2 0x159E JUMPI PUSH1 0x40 MLOAD PUSH3 0x461BCD PUSH1 0xE5 SHL DUP2 MSTORE PUSH1 0x20 PUSH1 0x4 DUP3 ADD MSTORE PUSH1 0x29 PUSH1 0x24 DUP3 ADD MSTORE PUSH32 0x596F75206861766520746F207374616B65206D6F726520746F2062652061626C PUSH1 0x44 DUP3 ADD MSTORE PUSH9 0x6520746F20766F7465 PUSH1 0xB8 SHL PUSH1 0x64 DUP3 ADD MSTORE PUSH1 0x84 ADD PUSH2 0x5D7 JUMP JUMPDEST CALLER PUSH1 0x0 SWAP1 DUP2 MSTORE PUSH1 0xE PUSH1 0x20 SWAP1 DUP2 MSTORE PUSH1 0x40 DUP1 DUP4 KECCAK256 DUP9 DUP5 MSTORE SWAP1 SWAP2 MSTORE DUP2 KECCAK256 DUP1 SLOAD DUP7 SWAP3 SWAP1 PUSH2 0x15C8 SWAP1 DUP5 SWAP1 PUSH2 0x2550 JUMP JUMPDEST SWAP1 SWAP2 SSTORE POP POP CALLER PUSH1 0x0 SWAP1 DUP2 MSTORE PUSH1 0x11 PUSH1 0x20 SWAP1 DUP2 MSTORE PUSH1 0x40 DUP1 DUP4 KECCAK256 DUP9 DUP5 MSTORE DUP3 MSTORE DUP1 DUP4 KECCAK256 DUP7 DUP5 MSTORE SWAP1 SWAP2 MSTORE DUP2 KECCAK256 DUP1 SLOAD DUP7 SWAP3 SWAP1 PUSH2 0x15FF SWAP1 DUP5 SWAP1 PUSH2 0x2550 JUMP JUMPDEST SWAP1 SWAP2 SSTORE POP POP PUSH1 0x6 DUP4 SWAP1 SUB PUSH2 0x1627 JUMPI DUP4 DUP3 PUSH1 0x5 ADD PUSH1 0x0 DUP3 DUP3 SLOAD PUSH2 0x1621 SWAP2 SWAP1 PUSH2 0x2550 JUMP JUMPDEST SWAP1 SWAP2 SSTORE POP POP JUMPDEST DUP3 PUSH1 0x7 SUB PUSH2 0x1649 JUMPI DUP4 DUP3 PUSH1 0x6 ADD PUSH1 0x0 DUP3 DUP3 SLOAD PUSH2 0x1643 SWAP2 SWAP1 PUSH2 0x2550 JUMP JUMPDEST SWAP1 SWAP2 SSTORE POP POP JUMPDEST DUP3 PUSH1 0x8 SUB PUSH2 0x166B JUMPI DUP4 DUP3 PUSH1 0x7 ADD PUSH1 0x0 DUP3 DUP3 SLOAD PUSH2 0x1665 SWAP2 SWAP1 PUSH2 0x2550 JUMP JUMPDEST SWAP1 SWAP2 SSTORE POP POP JUMPDEST PUSH1 0x40 DUP1 MLOAD DUP7 DUP2 MSTORE CALLER PUSH1 0x20 DUP3 ADD MSTORE SWAP1 DUP2 ADD DUP6 SWAP1 MSTORE PUSH1 0x60 DUP2 ADD DUP5 SWAP1 MSTORE TIMESTAMP PUSH1 0x80 DUP3 ADD MSTORE PUSH32 0x1BE57E677CCDBE44204C15CBE73870F8AFCFCD628E054B0DF3E7DD48FF7F23A1 SWAP1 PUSH1 0xA0 ADD PUSH1 0x40 MLOAD DUP1 SWAP2 SUB SWAP1 LOG1 POP POP POP POP POP JUMP JUMPDEST CALLER PUSH1 0x0 SWAP1 DUP2 MSTORE PUSH1 0x8 PUSH1 0x20 MSTORE PUSH1 0x40 SWAP1 KECCAK256 SLOAD PUSH1 0xFF AND PUSH2 0x16EE JUMPI PUSH1 0x40 MLOAD PUSH3 0x461BCD PUSH1 0xE5 SHL DUP2 MSTORE PUSH1 0x4 ADD PUSH2 0x5D7 SWAP1 PUSH2 0x24AC JUMP JUMPDEST PUSH1 0x1 DUP2 SWAP1 SSTORE PUSH1 0x40 MLOAD PUSH32 0x348EA656137B9A646EE4710808084BB27CDE9B69F49625BB9DEFCD0099C26CDB SWAP1 PUSH2 0x619 SWAP1 CALLER SWAP1 DUP5 SWAP1 TIMESTAMP SWAP1 PUSH2 0x24D0 JUMP JUMPDEST PUSH1 0x0 SLOAD PUSH1 0x1 PUSH1 0x1 PUSH1 0xA0 SHL SUB AND CALLER EQ PUSH2 0x1751 JUMPI PUSH1 0x40 MLOAD PUSH3 0x461BCD PUSH1 0xE5 SHL DUP2 MSTORE PUSH1 0x4 ADD PUSH2 0x5D7 SWAP1 PUSH2 0x2568 JUMP JUMPDEST PUSH1 0xF SSTORE JUMP JUMPDEST CALLER PUSH1 0x0 SWAP1 DUP2 MSTORE PUSH1 0x8 PUSH1 0x20 MSTORE PUSH1 0x40 SWAP1 KECCAK256 SLOAD PUSH1 0xFF AND PUSH2 0x1785 JUMPI PUSH1 0x40 MLOAD PUSH3 0x461BCD PUSH1 0xE5 SHL DUP2 MSTORE PUSH1 0x4 ADD PUSH2 0x5D7 SWAP1 PUSH2 0x24AC JUMP JUMPDEST PUSH1 0x6 DUP2 SWAP1 SSTORE PUSH1 0x40 MLOAD PUSH32 0x523E107819D8D7E488E3F49D9127ABF47E8DBEA6044E6A36413877A9B0F69B63 SWAP1 PUSH2 0x619 SWAP1 CALLER SWAP1 DUP5 SWAP1 TIMESTAMP SWAP1 PUSH2 0x24D0 JUMP JUMPDEST CALLER PUSH1 0x0 SWAP1 DUP2 MSTORE PUSH1 0x8 PUSH1 0x20 MSTORE PUSH1 0x40 SWAP1 KECCAK256 SLOAD PUSH1 0xFF AND PUSH2 0x17ED JUMPI PUSH1 0x40 MLOAD PUSH3 0x461BCD PUSH1 0xE5 SHL DUP2 MSTORE PUSH1 0x4 ADD PUSH2 0x5D7 SWAP1 PUSH2 0x24AC JUMP JUMPDEST PUSH1 0x0 DUP3 DUP2 MSTORE PUSH1 0x13 PUSH1 0x20 MSTORE PUSH1 0x40 SWAP1 KECCAK256 PUSH1 0x4 DUP2 ADD SLOAD PUSH1 0x1 EQ PUSH2 0x183E JUMPI PUSH1 0x40 MLOAD PUSH3 0x461BCD PUSH1 0xE5 SHL DUP2 MSTORE PUSH1 0x20 PUSH1 0x4 DUP3 ADD MSTORE PUSH1 0xC PUSH1 0x24 DUP3 ADD MSTORE PUSH12 0x63616E277420757064617465 PUSH1 0xA0 SHL PUSH1 0x44 DUP3 ADD MSTORE PUSH1 0x64 ADD PUSH2 0x5D7 JUMP JUMPDEST DUP2 PUSH1 0x2 EQ DUP1 PUSH2 0x184D JUMPI POP DUP2 PUSH1 0x3 EQ JUMPDEST DUP1 PUSH2 0x1858 JUMPI POP DUP2 PUSH1 0x9 EQ JUMPDEST PUSH2 0x1861 JUMPI PUSH1 0x0 DUP1 REVERT JUMPDEST PUSH1 0x4 DUP2 ADD DUP3 SWAP1 SSTORE PUSH1 0x2 DUP3 SWAP1 SUB PUSH2 0x188B JUMPI DUP1 SLOAD PUSH1 0x3 DUP3 ADD SLOAD PUSH2 0x188B SWAP2 PUSH1 0x1 PUSH1 0x1 PUSH1 0xA0 SHL SUB AND SWAP1 PUSH2 0x1C51 JUMP JUMPDEST DUP2 PUSH1 0x9 SUB PUSH2 0x18AE JUMPI PUSH1 0xC SLOAD PUSH1 0x3 DUP3 ADD SLOAD PUSH2 0x18AE SWAP2 PUSH1 0x1 PUSH1 0x1 PUSH1 0xA0 SHL SUB AND SWAP1 PUSH2 0x1C51 JUMP JUMPDEST DUP2 PUSH1 0x3 SUB PUSH2 0x18D0 JUMPI TIMESTAMP PUSH1 0x9 DUP3 ADD DUP2 SWAP1 SSTORE PUSH1 0x3 SLOAD PUSH2 0x18CA SWAP2 PUSH2 0x1CFB JUMP JUMPDEST PUSH1 0xA DUP3 ADD SSTORE JUMPDEST PUSH1 0x40 DUP1 MLOAD DUP5 DUP2 MSTORE PUSH1 0x20 DUP2 ADD DUP5 SWAP1 MSTORE PUSH32 0x26111D131AC2E5F1D2D00D7503064C00348006D76F8C797B9E01F11DC6D1A0B SWAP2 ADD PUSH2 0x137D JUMP JUMPDEST CALLER PUSH1 0x0 SWAP1 DUP2 MSTORE PUSH1 0x8 PUSH1 0x20 MSTORE PUSH1 0x40 SWAP1 KECCAK256 SLOAD PUSH1 0xFF AND PUSH2 0x1935 JUMPI PUSH1 0x40 MLOAD PUSH3 0x461BCD PUSH1 0xE5 SHL DUP2 MSTORE PUSH1 0x4 ADD PUSH2 0x5D7 SWAP1 PUSH2 0x24AC JUMP JUMPDEST PUSH1 0xB DUP1 SLOAD PUSH1 0x1 PUSH1 0x1 PUSH1 0xA0 SHL SUB NOT AND PUSH1 0x1 PUSH1 0x1 PUSH1 0xA0 SHL SUB SWAP3 SWAP1 SWAP3 AND SWAP2 SWAP1 SWAP2 OR SWAP1 SSTORE JUMP JUMPDEST CALLER PUSH1 0x0 SWAP1 DUP2 MSTORE PUSH1 0x8 PUSH1 0x20 MSTORE PUSH1 0x40 SWAP1 KECCAK256 SLOAD PUSH1 0xFF AND PUSH2 0x1986 JUMPI PUSH1 0x40 MLOAD PUSH3 0x461BCD PUSH1 0xE5 SHL DUP2 MSTORE PUSH1 0x4 ADD PUSH2 0x5D7 SWAP1 PUSH2 0x24AC JUMP JUMPDEST PUSH1 0x3 DUP2 SWAP1 SSTORE PUSH1 0x40 MLOAD PUSH32 0x15BB72481B346AB33C30B93A8FC381BDCD2C3C6758BD08EBD007E9676F3FD189 SWAP1 PUSH2 0x619 SWAP1 CALLER SWAP1 DUP5 SWAP1 TIMESTAMP SWAP1 PUSH2 0x24D0 JUMP JUMPDEST PUSH1 0x0 DUP3 DUP2 MSTORE PUSH1 0x13 PUSH1 0x20 MSTORE PUSH1 0x40 SWAP1 KECCAK256 PUSH1 0x4 DUP2 ADD SLOAD PUSH1 0x3 EQ PUSH2 0x1A10 JUMPI PUSH1 0x40 MLOAD PUSH3 0x461BCD PUSH1 0xE5 SHL DUP2 MSTORE PUSH1 0x20 PUSH1 0x4 DUP3 ADD MSTORE PUSH1 0xC PUSH1 0x24 DUP3 ADD MSTORE PUSH12 0x10D85B9D0819195C1BDCDA5D PUSH1 0xA2 SHL PUSH1 0x44 DUP3 ADD MSTORE PUSH1 0x64 ADD PUSH2 0x5D7 JUMP JUMPDEST TIMESTAMP DUP2 PUSH1 0x9 ADD SLOAD LT DUP1 ISZERO PUSH2 0x1A26 JUMPI POP TIMESTAMP DUP2 PUSH1 0xA ADD SLOAD GT JUMPDEST PUSH2 0x1A42 JUMPI PUSH1 0x40 MLOAD PUSH3 0x461BCD PUSH1 0xE5 SHL DUP2 MSTORE PUSH1 0x4 ADD PUSH2 0x5D7 SWAP1 PUSH2 0x2658 JUMP JUMPDEST DUP2 DUP2 PUSH1 0x3 ADD PUSH1 0x0 DUP3 DUP3 SLOAD PUSH2 0x1A56 SWAP2 SWAP1 PUSH2 0x2550 JUMP JUMPDEST SWAP1 SWAP2 SSTORE POP POP CALLER PUSH1 0x0 SWAP1 DUP2 MSTORE PUSH1 0xD PUSH1 0x20 SWAP1 DUP2 MSTORE PUSH1 0x40 DUP1 DUP4 KECCAK256 DUP7 DUP5 MSTORE SWAP1 SWAP2 MSTORE DUP2 KECCAK256 DUP1 SLOAD DUP5 SWAP3 SWAP1 PUSH2 0x1A85 SWAP1 DUP5 SWAP1 PUSH2 0x2550 JUMP JUMPDEST SWAP1 SWAP2 SSTORE POP POP PUSH1 0xA SLOAD PUSH2 0x1AA2 SWAP1 PUSH1 0x1 PUSH1 0x1 PUSH1 0xA0 SHL SUB AND CALLER ADDRESS DUP6 PUSH2 0x1D26 JUMP JUMPDEST PUSH1 0x40 DUP1 MLOAD CALLER DUP2 MSTORE PUSH1 0x20 DUP2 ADD DUP6 SWAP1 MSTORE SWAP1 DUP2 ADD DUP4 SWAP1 MSTORE TIMESTAMP PUSH1 0x60 DUP3 ADD MSTORE PUSH32 0x91C606A31ADB3414DBFD68DE98937E47ED510502BAFAFDBD10EB54FA1046010C SWAP1 PUSH1 0x80 ADD PUSH2 0x137D JUMP JUMPDEST CALLER PUSH1 0x0 SWAP1 DUP2 MSTORE PUSH1 0x8 PUSH1 0x20 MSTORE PUSH1 0x40 SWAP1 KECCAK256 SLOAD PUSH1 0xFF AND PUSH2 0x1B15 JUMPI PUSH1 0x40 MLOAD PUSH3 0x461BCD PUSH1 0xE5 SHL DUP2 MSTORE PUSH1 0x4 ADD PUSH2 0x5D7 SWAP1 PUSH2 0x24AC JUMP JUMPDEST PUSH1 0x5 DUP2 SWAP1 SSTORE PUSH1 0x40 MLOAD PUSH32 0xE57C3259C2139B60960087AD611DC7ABF0D0D9B5258B03FC8F8A89A5AF7188A1 SWAP1 PUSH2 0x619 SWAP1 CALLER SWAP1 DUP5 SWAP1 TIMESTAMP SWAP1 PUSH2 0x24D0 JUMP JUMPDEST PUSH1 0x0 SLOAD PUSH1 0x1 PUSH1 0x1 PUSH1 0xA0 SHL SUB AND CALLER EQ PUSH2 0x1B78 JUMPI PUSH1 0x40 MLOAD PUSH3 0x461BCD PUSH1 0xE5 SHL DUP2 MSTORE PUSH1 0x4 ADD PUSH2 0x5D7 SWAP1 PUSH2 0x2568 JUMP JUMPDEST PUSH1 0x1 PUSH1 0x1 PUSH1 0xA0 SHL SUB DUP2 AND PUSH2 0x1BDD JUMPI PUSH1 0x40 MLOAD PUSH3 0x461BCD PUSH1 0xE5 SHL DUP2 MSTORE PUSH1 0x20 PUSH1 0x4 DUP3 ADD MSTORE PUSH1 0x26 PUSH1 0x24 DUP3 ADD MSTORE PUSH32 0x4F776E61626C653A206E6577206F776E657220697320746865207A65726F2061 PUSH1 0x44 DUP3 ADD MSTORE PUSH6 0x646472657373 PUSH1 0xD0 SHL PUSH1 0x64 DUP3 ADD MSTORE PUSH1 0x84 ADD PUSH2 0x5D7 JUMP JUMPDEST PUSH2 0x1BE6 DUP2 PUSH2 0x1D97 JUMP JUMPDEST POP JUMP JUMPDEST CALLER PUSH1 0x0 SWAP1 DUP2 MSTORE PUSH1 0x8 PUSH1 0x20 MSTORE PUSH1 0x40 SWAP1 KECCAK256 SLOAD PUSH1 0xFF AND PUSH2 0x1C18 JUMPI PUSH1 0x40 MLOAD PUSH3 0x461BCD PUSH1 0xE5 SHL DUP2 MSTORE PUSH1 0x4 ADD PUSH2 0x5D7 SWAP1 PUSH2 0x24AC JUMP JUMPDEST PUSH1 0x2 DUP2 SWAP1 SSTORE PUSH1 0x40 MLOAD PUSH32 0x2E1898ADB5E93E50AEFB6C023D7E2C20EF8918D8090F99BD6524187D9DAB3FA3 SWAP1 PUSH2 0x619 SWAP1 CALLER SWAP1 DUP5 SWAP1 TIMESTAMP SWAP1 PUSH2 0x24D0 JUMP JUMPDEST PUSH1 0xA SLOAD PUSH1 0x40 MLOAD PUSH4 0x70A08231 PUSH1 0xE0 SHL DUP2 MSTORE ADDRESS PUSH1 0x4 DUP3 ADD MSTORE PUSH1 0x0 SWAP2 PUSH1 0x1 PUSH1 0x1 PUSH1 0xA0 SHL SUB AND SWAP1 PUSH4 0x70A08231 SWAP1 PUSH1 0x24 ADD PUSH1 0x20 PUSH1 0x40 MLOAD DUP1 DUP4 SUB DUP2 DUP7 GAS STATICCALL ISZERO DUP1 ISZERO PUSH2 0x1C9A JUMPI RETURNDATASIZE PUSH1 0x0 DUP1 RETURNDATACOPY RETURNDATASIZE PUSH1 0x0 REVERT JUMPDEST POP POP POP POP PUSH1 0x40 MLOAD RETURNDATASIZE PUSH1 0x1F NOT PUSH1 0x1F DUP3 ADD AND DUP3 ADD DUP1 PUSH1 0x40 MSTORE POP DUP2 ADD SWAP1 PUSH2 0x1CBE SWAP2 SWAP1 PUSH2 0x26CF JUMP JUMPDEST SWAP1 POP DUP1 DUP3 GT ISZERO PUSH2 0x1CE4 JUMPI PUSH1 0xA SLOAD PUSH2 0x1CDF SWAP1 PUSH1 0x1 PUSH1 0x1 PUSH1 0xA0 SHL SUB AND DUP5 DUP4 PUSH2 0x1DE7 JUMP JUMPDEST POP POP POP JUMP JUMPDEST PUSH1 0xA SLOAD PUSH2 0x1CDF SWAP1 PUSH1 0x1 PUSH1 0x1 PUSH1 0xA0 SHL SUB AND DUP5 DUP5 PUSH2 0x1DE7 JUMP JUMPDEST PUSH1 0x0 PUSH2 0x1D07 DUP3 DUP5 PUSH2 0x2550 JUMP JUMPDEST SWAP4 SWAP3 POP POP POP JUMP JUMPDEST PUSH1 0x0 PUSH2 0x1D07 DUP3 DUP5 PUSH2 0x26E8 JUMP JUMPDEST PUSH1 0x0 PUSH2 0x1D07 DUP3 DUP5 PUSH2 0x2707 JUMP JUMPDEST PUSH1 0x40 MLOAD PUSH1 0x1 PUSH1 0x1 PUSH1 0xA0 SHL SUB DUP1 DUP6 AND PUSH1 0x24 DUP4 ADD MSTORE DUP4 AND PUSH1 0x44 DUP3 ADD MSTORE PUSH1 0x64 DUP2 ADD DUP3 SWAP1 MSTORE PUSH2 0x1D91 SWAP1 DUP6 SWAP1 PUSH4 0x23B872DD PUSH1 0xE0 SHL SWAP1 PUSH1 0x84 ADD JUMPDEST PUSH1 0x40 DUP1 MLOAD PUSH1 0x1F NOT DUP2 DUP5 SUB ADD DUP2 MSTORE SWAP2 SWAP1 MSTORE PUSH1 0x20 DUP2 ADD DUP1 MLOAD PUSH1 0x1 PUSH1 0x1 PUSH1 0xE0 SHL SUB AND PUSH1 0x1 PUSH1 0x1 PUSH1 0xE0 SHL SUB NOT SWAP1 SWAP4 AND SWAP3 SWAP1 SWAP3 OR SWAP1 SWAP2 MSTORE PUSH2 0x1E17 JUMP JUMPDEST POP POP POP POP JUMP JUMPDEST PUSH1 0x0 DUP1 SLOAD PUSH1 0x1 PUSH1 0x1 PUSH1 0xA0 SHL SUB DUP4 DUP2 AND PUSH1 0x1 PUSH1 0x1 PUSH1 0xA0 SHL SUB NOT DUP4 AND DUP2 OR DUP5 SSTORE PUSH1 0x40 MLOAD SWAP2 SWAP1 SWAP3 AND SWAP3 DUP4 SWAP2 PUSH32 0x8BE0079C531659141344CD1FD0A4F28419497F9722A3DAAFE3B4186F6B6457E0 SWAP2 SWAP1 LOG3 POP POP JUMP JUMPDEST PUSH1 0x40 MLOAD PUSH1 0x1 PUSH1 0x1 PUSH1 0xA0 SHL SUB DUP4 AND PUSH1 0x24 DUP3 ADD MSTORE PUSH1 0x44 DUP2 ADD DUP3 SWAP1 MSTORE PUSH2 0x1CDF SWAP1 DUP5 SWAP1 PUSH4 0xA9059CBB PUSH1 0xE0 SHL SWAP1 PUSH1 0x64 ADD PUSH2 0x1D5A JUMP JUMPDEST PUSH1 0x0 PUSH2 0x1E6C DUP3 PUSH1 0x40 MLOAD DUP1 PUSH1 0x40 ADD PUSH1 0x40 MSTORE DUP1 PUSH1 0x20 DUP2 MSTORE PUSH1 0x20 ADD PUSH32 0x5361666545524332303A206C6F772D6C6576656C2063616C6C206661696C6564 DUP2 MSTORE POP DUP6 PUSH1 0x1 PUSH1 0x1 PUSH1 0xA0 SHL SUB AND PUSH2 0x1EE9 SWAP1 SWAP3 SWAP2 SWAP1 PUSH4 0xFFFFFFFF AND JUMP JUMPDEST DUP1 MLOAD SWAP1 SWAP2 POP ISZERO PUSH2 0x1CDF JUMPI DUP1 DUP1 PUSH1 0x20 ADD SWAP1 MLOAD DUP2 ADD SWAP1 PUSH2 0x1E8A SWAP2 SWAP1 PUSH2 0x2729 JUMP JUMPDEST PUSH2 0x1CDF JUMPI PUSH1 0x40 MLOAD PUSH3 0x461BCD PUSH1 0xE5 SHL DUP2 MSTORE PUSH1 0x20 PUSH1 0x4 DUP3 ADD MSTORE PUSH1 0x2A PUSH1 0x24 DUP3 ADD MSTORE PUSH32 0x5361666545524332303A204552433230206F7065726174696F6E20646964206E PUSH1 0x44 DUP3 ADD MSTORE PUSH10 0x1BDD081CDD58D8D95959 PUSH1 0xB2 SHL PUSH1 0x64 DUP3 ADD MSTORE PUSH1 0x84 ADD PUSH2 0x5D7 JUMP JUMPDEST PUSH1 0x60 PUSH2 0x1EF8 DUP5 DUP5 PUSH1 0x0 DUP6 PUSH2 0x1F00 JUMP JUMPDEST SWAP5 SWAP4 POP POP POP POP JUMP JUMPDEST PUSH1 0x60 DUP3 SELFBALANCE LT ISZERO PUSH2 0x1F61 JUMPI PUSH1 0x40 MLOAD PUSH3 0x461BCD PUSH1 0xE5 SHL DUP2 MSTORE PUSH1 0x20 PUSH1 0x4 DUP3 ADD MSTORE PUSH1 0x26 PUSH1 0x24 DUP3 ADD MSTORE PUSH32 0x416464726573733A20696E73756666696369656E742062616C616E636520666F PUSH1 0x44 DUP3 ADD MSTORE PUSH6 0x1C8818D85B1B PUSH1 0xD2 SHL PUSH1 0x64 DUP3 ADD MSTORE PUSH1 0x84 ADD PUSH2 0x5D7 JUMP JUMPDEST PUSH1 0x1 PUSH1 0x1 PUSH1 0xA0 SHL SUB DUP6 AND EXTCODESIZE PUSH2 0x1FB8 JUMPI PUSH1 0x40 MLOAD PUSH3 0x461BCD PUSH1 0xE5 SHL DUP2 MSTORE PUSH1 0x20 PUSH1 0x4 DUP3 ADD MSTORE PUSH1 0x1D PUSH1 0x24 DUP3 ADD MSTORE PUSH32 0x416464726573733A2063616C6C20746F206E6F6E2D636F6E7472616374000000 PUSH1 0x44 DUP3 ADD MSTORE PUSH1 0x64 ADD PUSH2 0x5D7 JUMP JUMPDEST PUSH1 0x0 DUP1 DUP7 PUSH1 0x1 PUSH1 0x1 PUSH1 0xA0 SHL SUB AND DUP6 DUP8 PUSH1 0x40 MLOAD PUSH2 0x1FD4 SWAP2 SWAP1 PUSH2 0x274B JUMP JUMPDEST PUSH1 0x0 PUSH1 0x40 MLOAD DUP1 DUP4 SUB DUP2 DUP6 DUP8 GAS CALL SWAP3 POP POP POP RETURNDATASIZE DUP1 PUSH1 0x0 DUP2 EQ PUSH2 0x2011 JUMPI PUSH1 0x40 MLOAD SWAP2 POP PUSH1 0x1F NOT PUSH1 0x3F RETURNDATASIZE ADD AND DUP3 ADD PUSH1 0x40 MSTORE RETURNDATASIZE DUP3 MSTORE RETURNDATASIZE PUSH1 0x0 PUSH1 0x20 DUP5 ADD RETURNDATACOPY PUSH2 0x2016 JUMP JUMPDEST PUSH1 0x60 SWAP2 POP JUMPDEST POP SWAP2 POP SWAP2 POP PUSH2 0x2026 DUP3 DUP3 DUP7 PUSH2 0x2031 JUMP JUMPDEST SWAP8 SWAP7 POP POP POP POP POP POP POP JUMP JUMPDEST PUSH1 0x60 DUP4 ISZERO PUSH2 0x2040 JUMPI POP DUP2 PUSH2 0x1D07 JUMP JUMPDEST DUP3 MLOAD ISZERO PUSH2 0x2050 JUMPI DUP3 MLOAD DUP1 DUP5 PUSH1 0x20 ADD REVERT JUMPDEST DUP2 PUSH1 0x40 MLOAD PUSH3 0x461BCD PUSH1 0xE5 SHL DUP2 MSTORE PUSH1 0x4 ADD PUSH2 0x5D7 SWAP2 SWAP1 PUSH2 0x2767 JUMP JUMPDEST DUP3 DUP1 SLOAD PUSH2 0x2076 SWAP1 PUSH2 0x25CC JUMP JUMPDEST SWAP1 PUSH1 0x0 MSTORE PUSH1 0x20 PUSH1 0x0 KECCAK256 SWAP1 PUSH1 0x1F ADD PUSH1 0x20 SWAP1 DIV DUP2 ADD SWAP3 DUP3 PUSH2 0x2098 JUMPI PUSH1 0x0 DUP6 SSTORE PUSH2 0x20DE JUMP JUMPDEST DUP3 PUSH1 0x1F LT PUSH2 0x20B1 JUMPI DUP1 MLOAD PUSH1 0xFF NOT AND DUP4 DUP1 ADD OR DUP6 SSTORE PUSH2 0x20DE JUMP JUMPDEST DUP3 DUP1 ADD PUSH1 0x1 ADD DUP6 SSTORE DUP3 ISZERO PUSH2 0x20DE JUMPI SWAP2 DUP3 ADD JUMPDEST DUP3 DUP2 GT ISZERO PUSH2 0x20DE JUMPI DUP3 MLOAD DUP3 SSTORE SWAP2 PUSH1 0x20 ADD SWAP2 SWAP1 PUSH1 0x1 ADD SWAP1 PUSH2 0x20C3 JUMP JUMPDEST POP PUSH2 0x20EA SWAP3 SWAP2 POP PUSH2 0x20EE JUMP JUMPDEST POP SWAP1 JUMP JUMPDEST JUMPDEST DUP1 DUP3 GT ISZERO PUSH2 0x20EA JUMPI PUSH1 0x0 DUP2 SSTORE PUSH1 0x1 ADD PUSH2 0x20EF JUMP JUMPDEST PUSH1 0x0 PUSH1 0x20 DUP3 DUP5 SUB SLT ISZERO PUSH2 0x2115 JUMPI PUSH1 0x0 DUP1 REVERT JUMPDEST POP CALLDATALOAD SWAP2 SWAP1 POP JUMP JUMPDEST PUSH4 0x4E487B71 PUSH1 0xE0 SHL PUSH1 0x0 MSTORE PUSH1 0x41 PUSH1 0x4 MSTORE PUSH1 0x24 PUSH1 0x0 REVERT JUMPDEST PUSH1 0x40 MLOAD PUSH1 0x1F DUP3 ADD PUSH1 0x1F NOT AND DUP2 ADD PUSH8 0xFFFFFFFFFFFFFFFF DUP2 GT DUP3 DUP3 LT OR ISZERO PUSH2 0x215B JUMPI PUSH2 0x215B PUSH2 0x211C JUMP JUMPDEST PUSH1 0x40 MSTORE SWAP2 SWAP1 POP JUMP JUMPDEST PUSH1 0x1 PUSH1 0x1 PUSH1 0xA0 SHL SUB DUP2 AND DUP2 EQ PUSH2 0x1BE6 JUMPI PUSH1 0x0 DUP1 REVERT JUMPDEST PUSH1 0x0 PUSH1 0x20 DUP1 DUP4 DUP6 SUB SLT ISZERO PUSH2 0x218B JUMPI PUSH1 0x0 DUP1 REVERT JUMPDEST DUP3 CALLDATALOAD PUSH8 0xFFFFFFFFFFFFFFFF DUP1 DUP3 GT ISZERO PUSH2 0x21A3 JUMPI PUSH1 0x0 DUP1 REVERT JUMPDEST DUP2 DUP6 ADD SWAP2 POP DUP6 PUSH1 0x1F DUP4 ADD SLT PUSH2 0x21B7 JUMPI PUSH1 0x0 DUP1 REVERT JUMPDEST DUP2 CALLDATALOAD DUP2 DUP2 GT ISZERO PUSH2 0x21C9 JUMPI PUSH2 0x21C9 PUSH2 0x211C JUMP JUMPDEST DUP1 PUSH1 0x5 SHL SWAP2 POP PUSH2 0x21DA DUP5 DUP4 ADD PUSH2 0x2132 JUMP JUMPDEST DUP2 DUP2 MSTORE SWAP2 DUP4 ADD DUP5 ADD SWAP2 DUP5 DUP2 ADD SWAP1 DUP9 DUP5 GT ISZERO PUSH2 0x21F4 JUMPI PUSH1 0x0 DUP1 REVERT JUMPDEST SWAP4 DUP6 ADD SWAP4 JUMPDEST DUP4 DUP6 LT ISZERO PUSH2 0x221E JUMPI DUP5 CALLDATALOAD SWAP3 POP PUSH2 0x220E DUP4 PUSH2 0x2163 JUMP JUMPDEST DUP3 DUP3 MSTORE SWAP4 DUP6 ADD SWAP4 SWAP1 DUP6 ADD SWAP1 PUSH2 0x21F9 JUMP JUMPDEST SWAP9 SWAP8 POP POP POP POP POP POP POP POP JUMP JUMPDEST PUSH1 0x0 PUSH1 0x20 DUP3 DUP5 SUB SLT ISZERO PUSH2 0x223C JUMPI PUSH1 0x0 DUP1 REVERT JUMPDEST DUP2 CALLDATALOAD PUSH2 0x1D07 DUP2 PUSH2 0x2163 JUMP JUMPDEST PUSH1 0x0 DUP1 PUSH1 0x0 PUSH1 0x60 DUP5 DUP7 SUB SLT ISZERO PUSH2 0x225C JUMPI PUSH1 0x0 DUP1 REVERT JUMPDEST DUP4 CALLDATALOAD PUSH2 0x2267 DUP2 PUSH2 0x2163 JUMP JUMPDEST SWAP6 PUSH1 0x20 DUP6 ADD CALLDATALOAD SWAP6 POP PUSH1 0x40 SWAP1 SWAP5 ADD CALLDATALOAD SWAP4 SWAP3 POP POP POP JUMP JUMPDEST PUSH1 0x0 JUMPDEST DUP4 DUP2 LT ISZERO PUSH2 0x2297 JUMPI DUP2 DUP2 ADD MLOAD DUP4 DUP3 ADD MSTORE PUSH1 0x20 ADD PUSH2 0x227F JUMP JUMPDEST DUP4 DUP2 GT ISZERO PUSH2 0x1D91 JUMPI POP POP PUSH1 0x0 SWAP2 ADD MSTORE JUMP JUMPDEST PUSH1 0x0 DUP2 MLOAD DUP1 DUP5 MSTORE PUSH2 0x22C0 DUP2 PUSH1 0x20 DUP7 ADD PUSH1 0x20 DUP7 ADD PUSH2 0x227C JUMP JUMPDEST PUSH1 0x1F ADD PUSH1 0x1F NOT AND SWAP3 SWAP1 SWAP3 ADD PUSH1 0x20 ADD SWAP3 SWAP2 POP POP JUMP JUMPDEST PUSH1 0x1 PUSH1 0x1 PUSH1 0xA0 SHL SUB DUP15 AND DUP2 MSTORE PUSH2 0x1A0 PUSH1 0x20 DUP3 ADD DUP2 SWAP1 MSTORE PUSH1 0x0 SWAP1 PUSH2 0x22F9 SWAP1 DUP4 ADD DUP16 PUSH2 0x22A8 JUMP JUMPDEST DUP3 DUP2 SUB PUSH1 0x40 DUP5 ADD MSTORE PUSH2 0x230B DUP2 DUP16 PUSH2 0x22A8 JUMP JUMPDEST PUSH1 0x60 DUP5 ADD SWAP14 SWAP1 SWAP14 MSTORE POP POP PUSH1 0x80 DUP2 ADD SWAP10 SWAP1 SWAP10 MSTORE PUSH1 0xA0 DUP10 ADD SWAP8 SWAP1 SWAP8 MSTORE PUSH1 0xC0 DUP9 ADD SWAP6 SWAP1 SWAP6 MSTORE PUSH1 0xE0 DUP8 ADD SWAP4 SWAP1 SWAP4 MSTORE PUSH2 0x100 DUP7 ADD SWAP2 SWAP1 SWAP2 MSTORE PUSH2 0x120 DUP6 ADD MSTORE PUSH2 0x140 DUP5 ADD MSTORE PUSH2 0x160 DUP4 ADD MSTORE PUSH2 0x180 SWAP1 SWAP2 ADD MSTORE SWAP4 SWAP3 POP POP POP JUMP JUMPDEST PUSH1 0x0 DUP3 PUSH1 0x1F DUP4 ADD SLT PUSH2 0x236F JUMPI PUSH1 0x0 DUP1 REVERT JUMPDEST DUP2 CALLDATALOAD PUSH8 0xFFFFFFFFFFFFFFFF DUP2 GT ISZERO PUSH2 0x2389 JUMPI PUSH2 0x2389 PUSH2 0x211C JUMP JUMPDEST PUSH2 0x239C PUSH1 0x1F DUP3 ADD PUSH1 0x1F NOT AND PUSH1 0x20 ADD PUSH2 0x2132 JUMP JUMPDEST DUP2 DUP2 MSTORE DUP5 PUSH1 0x20 DUP4 DUP7 ADD ADD GT ISZERO PUSH2 0x23B1 JUMPI PUSH1 0x0 DUP1 REVERT JUMPDEST DUP2 PUSH1 0x20 DUP6 ADD PUSH1 0x20 DUP4 ADD CALLDATACOPY PUSH1 0x0 SWAP2 DUP2 ADD PUSH1 0x20 ADD SWAP2 SWAP1 SWAP2 MSTORE SWAP4 SWAP3 POP POP POP JUMP JUMPDEST PUSH1 0x0 DUP1 PUSH1 0x40 DUP4 DUP6 SUB SLT ISZERO PUSH2 0x23E1 JUMPI PUSH1 0x0 DUP1 REVERT JUMPDEST DUP3 CALLDATALOAD PUSH8 0xFFFFFFFFFFFFFFFF DUP1 DUP3 GT ISZERO PUSH2 0x23F9 JUMPI PUSH1 0x0 DUP1 REVERT JUMPDEST PUSH2 0x2405 DUP7 DUP4 DUP8 ADD PUSH2 0x235E JUMP JUMPDEST SWAP4 POP PUSH1 0x20 DUP6 ADD CALLDATALOAD SWAP2 POP DUP1 DUP3 GT ISZERO PUSH2 0x241B JUMPI PUSH1 0x0 DUP1 REVERT JUMPDEST POP PUSH2 0x2428 DUP6 DUP3 DUP7 ADD PUSH2 0x235E JUMP JUMPDEST SWAP2 POP POP SWAP3 POP SWAP3 SWAP1 POP JUMP JUMPDEST PUSH1 0x0 DUP1 PUSH1 0x40 DUP4 DUP6 SUB SLT ISZERO PUSH2 0x2445 JUMPI PUSH1 0x0 DUP1 REVERT JUMPDEST DUP3 CALLDATALOAD PUSH2 0x2450 DUP2 PUSH2 0x2163 JUMP JUMPDEST SWAP5 PUSH1 0x20 SWAP4 SWAP1 SWAP4 ADD CALLDATALOAD SWAP4 POP POP POP JUMP JUMPDEST PUSH1 0x0 DUP1 PUSH1 0x0 PUSH1 0x60 DUP5 DUP7 SUB SLT ISZERO PUSH2 0x2473 JUMPI PUSH1 0x0 DUP1 REVERT JUMPDEST POP POP DUP2 CALLDATALOAD SWAP4 PUSH1 0x20 DUP4 ADD CALLDATALOAD SWAP4 POP PUSH1 0x40 SWAP1 SWAP3 ADD CALLDATALOAD SWAP2 SWAP1 POP JUMP JUMPDEST PUSH1 0x0 DUP1 PUSH1 0x40 DUP4 DUP6 SUB SLT ISZERO PUSH2 0x249D JUMPI PUSH1 0x0 DUP1 REVERT JUMPDEST POP POP DUP1 CALLDATALOAD SWAP3 PUSH1 0x20 SWAP1 SWAP2 ADD CALLDATALOAD SWAP2 POP JUMP JUMPDEST PUSH1 0x20 DUP1 DUP3 MSTORE PUSH1 0xA SWAP1 DUP3 ADD MSTORE PUSH10 0x27B7363C9020B236B4B7 PUSH1 0xB1 SHL PUSH1 0x40 DUP3 ADD MSTORE PUSH1 0x60 ADD SWAP1 JUMP JUMPDEST PUSH1 0x1 PUSH1 0x1 PUSH1 0xA0 SHL SUB SWAP4 SWAP1 SWAP4 AND DUP4 MSTORE PUSH1 0x20 DUP4 ADD SWAP2 SWAP1 SWAP2 MSTORE PUSH1 0x40 DUP3 ADD MSTORE PUSH1 0x60 ADD SWAP1 JUMP JUMPDEST PUSH1 0x0 DUP1 PUSH1 0x0 DUP1 PUSH1 0x0 PUSH1 0xA0 DUP7 DUP9 SUB SLT ISZERO PUSH2 0x2509 JUMPI PUSH1 0x0 DUP1 REVERT JUMPDEST DUP6 MLOAD PUSH2 0x2514 DUP2 PUSH2 0x2163 JUMP JUMPDEST PUSH1 0x20 DUP8 ADD MLOAD PUSH1 0x40 DUP9 ADD MLOAD PUSH1 0x60 DUP10 ADD MLOAD PUSH1 0x80 SWAP1 SWAP10 ADD MLOAD SWAP3 SWAP11 SWAP2 SWAP10 POP SWAP8 SWAP7 POP SWAP1 SWAP5 POP SWAP3 POP POP POP JUMP JUMPDEST PUSH4 0x4E487B71 PUSH1 0xE0 SHL PUSH1 0x0 MSTORE PUSH1 0x11 PUSH1 0x4 MSTORE PUSH1 0x24 PUSH1 0x0 REVERT JUMPDEST PUSH1 0x0 DUP3 NOT DUP3 GT ISZERO PUSH2 0x2563 JUMPI PUSH2 0x2563 PUSH2 0x253A JUMP JUMPDEST POP ADD SWAP1 JUMP JUMPDEST PUSH1 0x20 DUP1 DUP3 MSTORE DUP2 DUP2 ADD MSTORE PUSH32 0x4F776E61626C653A2063616C6C6572206973206E6F7420746865206F776E6572 PUSH1 0x40 DUP3 ADD MSTORE PUSH1 0x60 ADD SWAP1 JUMP JUMPDEST PUSH4 0x4E487B71 PUSH1 0xE0 SHL PUSH1 0x0 MSTORE PUSH1 0x32 PUSH1 0x4 MSTORE PUSH1 0x24 PUSH1 0x0 REVERT JUMPDEST PUSH1 0x0 PUSH1 0x1 DUP3 ADD PUSH2 0x25C5 JUMPI PUSH2 0x25C5 PUSH2 0x253A JUMP JUMPDEST POP PUSH1 0x1 ADD SWAP1 JUMP JUMPDEST PUSH1 0x1 DUP2 DUP2 SHR SWAP1 DUP3 AND DUP1 PUSH2 0x25E0 JUMPI PUSH1 0x7F DUP3 AND SWAP2 POP JUMPDEST PUSH1 0x20 DUP3 LT DUP2 SUB PUSH2 0x2600 JUMPI PUSH4 0x4E487B71 PUSH1 0xE0 SHL PUSH1 0x0 MSTORE PUSH1 0x22 PUSH1 0x4 MSTORE PUSH1 0x24 PUSH1 0x0 REVERT JUMPDEST POP SWAP2 SWAP1 POP JUMP JUMPDEST DUP7 DUP2 MSTORE PUSH1 0x1 PUSH1 0x1 PUSH1 0xA0 SHL SUB DUP7 AND PUSH1 0x20 DUP3 ADD MSTORE PUSH1 0xC0 PUSH1 0x40 DUP3 ADD DUP2 SWAP1 MSTORE PUSH1 0x0 SWAP1 PUSH2 0x2630 SWAP1 DUP4 ADD DUP8 PUSH2 0x22A8 JUMP JUMPDEST DUP3 DUP2 SUB PUSH1 0x60 DUP5 ADD MSTORE PUSH2 0x2642 DUP2 DUP8 PUSH2 0x22A8 JUMP JUMPDEST PUSH1 0x80 DUP5 ADD SWAP6 SWAP1 SWAP6 MSTORE POP POP PUSH1 0xA0 ADD MSTORE SWAP5 SWAP4 POP POP POP POP JUMP JUMPDEST PUSH1 0x20 DUP1 DUP3 MSTORE PUSH1 0x29 SWAP1 DUP3 ADD MSTORE PUSH32 0x54686520646561646C696E65206861732070617373656420666F722074686973 PUSH1 0x40 DUP3 ADD MSTORE PUSH9 0x8141C9BDC1BDCD85B PUSH1 0xBA SHL PUSH1 0x60 DUP3 ADD MSTORE PUSH1 0x80 ADD SWAP1 JUMP JUMPDEST PUSH1 0x0 DUP1 PUSH1 0x0 PUSH1 0x60 DUP5 DUP7 SUB SLT ISZERO PUSH2 0x26B6 JUMPI PUSH1 0x0 DUP1 REVERT JUMPDEST DUP4 MLOAD SWAP3 POP PUSH1 0x20 DUP5 ADD MLOAD SWAP2 POP PUSH1 0x40 DUP5 ADD MLOAD SWAP1 POP SWAP3 POP SWAP3 POP SWAP3 JUMP JUMPDEST PUSH1 0x0 PUSH1 0x20 DUP3 DUP5 SUB SLT ISZERO PUSH2 0x26E1 JUMPI PUSH1 0x0 DUP1 REVERT JUMPDEST POP MLOAD SWAP2 SWAP1 POP JUMP JUMPDEST PUSH1 0x0 DUP2 PUSH1 0x0 NOT DIV DUP4 GT DUP3 ISZERO ISZERO AND ISZERO PUSH2 0x2702 JUMPI PUSH2 0x2702 PUSH2 0x253A JUMP JUMPDEST POP MUL SWAP1 JUMP JUMPDEST PUSH1 0x0 DUP3 PUSH2 0x2724 JUMPI PUSH4 0x4E487B71 PUSH1 0xE0 SHL PUSH1 0x0 MSTORE PUSH1 0x12 PUSH1 0x4 MSTORE PUSH1 0x24 PUSH1 0x0 REVERT JUMPDEST POP DIV SWAP1 JUMP JUMPDEST PUSH1 0x0 PUSH1 0x20 DUP3 DUP5 SUB SLT ISZERO PUSH2 0x273B JUMPI PUSH1 0x0 DUP1 REVERT JUMPDEST DUP2 MLOAD DUP1 ISZERO ISZERO DUP2 EQ PUSH2 0x1D07 JUMPI PUSH1 0x0 DUP1 REVERT JUMPDEST PUSH1 0x0 DUP3 MLOAD PUSH2 0x275D DUP2 DUP5 PUSH1 0x20 DUP8 ADD PUSH2 0x227C JUMP JUMPDEST SWAP2 SWAP1 SWAP2 ADD SWAP3 SWAP2 POP POP JUMP JUMPDEST PUSH1 0x20 DUP2 MSTORE PUSH1 0x0 PUSH2 0x1D07 PUSH1 0x20 DUP4 ADD DUP5 PUSH2 0x22A8 JUMP INVALID LOG2 PUSH5 0x6970667358 0x22 SLT KECCAK256 SELFDESTRUCT EXP DUP6 0xD9 MLOAD 0xFC MUL PUSH13 0x5EE455E73A8A4AB03B8E67061B PUSH30 0x67028C0166FF1C2E13ED64736F6C634300080E0033000000000000000000 "
        },
        "methodIdentifiers": {
          "CloseCreateProposal()": "88efc187",
          "UpdateProposalNumber(uint256)": "96ec2959",
          "activeDeposit(uint256,uint256)": "a02976c2",
          "admin(address)": "63a846f8",
          "burn()": "44df8e70",
          "createProposal(string,string)": "65e481e2",
          "deposit(uint256,uint256)": "e2bbb158",
          "durationDeposit()": "9dabe5f2",
          "durationVote()": "510e87d0",
          "editDurationDeposit(uint256)": "d527e5bc",
          "editDurationVote(uint256)": "050584c7",
          "editInitialProposal(uint256)": "8b26bff9",
          "editMinDeposit(uint256)": "fd643bc2",
          "editQuorum(uint256)": "ed69caeb",
          "editStakeAddress(address)": "bb7dc052",
          "editThresholdPassed(uint256)": "41b90af4",
          "editThresholdVeto(uint256)": "9cbc5d95",
          "emergencyWithdraw(uint256)": "5312ea8e",
          "executeProposal(uint256)": "0d61b519",
          "governanceToken()": "f96dae0a",
          "initialProposal()": "7c568f6a",
          "mapDeposits(address,uint256)": "8faefb99",
          "mapVotes(address,uint256)": "f3a11103",
          "minDeposit()": "41b3d185",
          "owner()": "8da5cb5b",
          "powerAdmin(address[])": "27ede436",
          "powerValidator(address[])": "1d5592fe",
          "proposal(uint256)": "30326c17",
          "quorum()": "1703a018",
          "renounceOwnership()": "715018a6",
          "stake()": "3a4b66f1",
          "statusVotes(address,uint256,uint256)": "297457f1",
          "thresholdPassed()": "d78d26c7",
          "thresholdVeto()": "cc92639d",
          "transferOwnership(address)": "f2fde38b",
          "validator(address)": "223b3b7a",
          "vote(uint256,uint256,uint256)": "8a6655d6",
          "withdrawID(address,uint256)": "783fd590",
          "withdrawal(uint256)": "835fc6ca"
        }
      },
      "storageLayout": {
        "storage": [
          {
            "astId": 7,
            "contract": "contracts/GovernanceV2.sol:GovernanceV2",
            "label": "_owner",
            "offset": 0,
            "slot": "0",
            "type": "t_address"
          },
          {
            "astId": 1176,
            "contract": "contracts/GovernanceV2.sol:GovernanceV2",
            "label": "initialProposal",
            "offset": 0,
            "slot": "1",
            "type": "t_uint256"
          },
          {
            "astId": 1178,
            "contract": "contracts/GovernanceV2.sol:GovernanceV2",
            "label": "minDeposit",
            "offset": 0,
            "slot": "2",
            "type": "t_uint256"
          },
          {
            "astId": 1180,
            "contract": "contracts/GovernanceV2.sol:GovernanceV2",
            "label": "durationDeposit",
            "offset": 0,
            "slot": "3",
            "type": "t_uint256"
          },
          {
            "astId": 1182,
            "contract": "contracts/GovernanceV2.sol:GovernanceV2",
            "label": "durationVote",
            "offset": 0,
            "slot": "4",
            "type": "t_uint256"
          },
          {
            "astId": 1184,
            "contract": "contracts/GovernanceV2.sol:GovernanceV2",
            "label": "quorum",
            "offset": 0,
            "slot": "5",
            "type": "t_uint256"
          },
          {
            "astId": 1186,
            "contract": "contracts/GovernanceV2.sol:GovernanceV2",
            "label": "thresholdVeto",
            "offset": 0,
            "slot": "6",
            "type": "t_uint256"
          },
          {
            "astId": 1188,
            "contract": "contracts/GovernanceV2.sol:GovernanceV2",
            "label": "thresholdPassed",
            "offset": 0,
            "slot": "7",
            "type": "t_uint256"
          },
          {
            "astId": 1192,
            "contract": "contracts/GovernanceV2.sol:GovernanceV2",
            "label": "admin",
            "offset": 0,
            "slot": "8",
            "type": "t_mapping(t_address,t_bool)"
          },
          {
            "astId": 1196,
            "contract": "contracts/GovernanceV2.sol:GovernanceV2",
            "label": "validator",
            "offset": 0,
            "slot": "9",
            "type": "t_mapping(t_address,t_bool)"
          },
          {
            "astId": 1603,
            "contract": "contracts/GovernanceV2.sol:GovernanceV2",
            "label": "governanceToken",
            "offset": 0,
            "slot": "10",
            "type": "t_contract(IERC20)182"
          },
          {
            "astId": 1606,
            "contract": "contracts/GovernanceV2.sol:GovernanceV2",
            "label": "stake",
            "offset": 0,
            "slot": "11",
            "type": "t_contract(Stake)1591"
          },
          {
            "astId": 1608,
            "contract": "contracts/GovernanceV2.sol:GovernanceV2",
            "label": "burn",
            "offset": 0,
            "slot": "12",
            "type": "t_address"
          },
          {
            "astId": 1690,
            "contract": "contracts/GovernanceV2.sol:GovernanceV2",
            "label": "mapDeposits",
            "offset": 0,
            "slot": "13",
            "type": "t_mapping(t_address,t_mapping(t_uint256,t_uint256))"
          },
          {
            "astId": 1696,
            "contract": "contracts/GovernanceV2.sol:GovernanceV2",
            "label": "mapVotes",
            "offset": 0,
            "slot": "14",
            "type": "t_mapping(t_address,t_mapping(t_uint256,t_uint256))"
          },
          {
            "astId": 1699,
            "contract": "contracts/GovernanceV2.sol:GovernanceV2",
            "label": "proposalNumber",
            "offset": 0,
            "slot": "15",
            "type": "t_uint256"
          },
          {
            "astId": 1701,
            "contract": "contracts/GovernanceV2.sol:GovernanceV2",
            "label": "boolCreate",
            "offset": 0,
            "slot": "16",
            "type": "t_bool"
          },
          {
            "astId": 1709,
            "contract": "contracts/GovernanceV2.sol:GovernanceV2",
            "label": "statusVotes",
            "offset": 0,
            "slot": "17",
            "type": "t_mapping(t_address,t_mapping(t_uint256,t_mapping(t_uint256,t_uint256)))"
          },
          {
            "astId": 1715,
            "contract": "contracts/GovernanceV2.sol:GovernanceV2",
            "label": "withdrawID",
            "offset": 0,
            "slot": "18",
            "type": "t_mapping(t_address,t_mapping(t_uint256,t_bool))"
          },
          {
            "astId": 1720,
            "contract": "contracts/GovernanceV2.sol:GovernanceV2",
            "label": "proposal",
            "offset": 0,
            "slot": "19",
            "type": "t_mapping(t_uint256,t_struct(Proposal)1684_storage)"
          }
        ],
        "types": {
          "t_address": {
            "encoding": "inplace",
            "label": "address",
            "numberOfBytes": "20"
          },
          "t_bool": {
            "encoding": "inplace",
            "label": "bool",
            "numberOfBytes": "1"
          },
          "t_contract(IERC20)182": {
            "encoding": "inplace",
            "label": "contract IERC20",
            "numberOfBytes": "20"
          },
          "t_contract(Stake)1591": {
            "encoding": "inplace",
            "label": "contract Stake",
            "numberOfBytes": "20"
          },
          "t_mapping(t_address,t_bool)": {
            "encoding": "mapping",
            "key": "t_address",
            "label": "mapping(address => bool)",
            "numberOfBytes": "32",
            "value": "t_bool"
          },
          "t_mapping(t_address,t_mapping(t_uint256,t_bool))": {
            "encoding": "mapping",
            "key": "t_address",
            "label": "mapping(address => mapping(uint256 => bool))",
            "numberOfBytes": "32",
            "value": "t_mapping(t_uint256,t_bool)"
          },
          "t_mapping(t_address,t_mapping(t_uint256,t_mapping(t_uint256,t_uint256)))": {
            "encoding": "mapping",
            "key": "t_address",
            "label": "mapping(address => mapping(uint256 => mapping(uint256 => uint256)))",
            "numberOfBytes": "32",
            "value": "t_mapping(t_uint256,t_mapping(t_uint256,t_uint256))"
          },
          "t_mapping(t_address,t_mapping(t_uint256,t_uint256))": {
            "encoding": "mapping",
            "key": "t_address",
            "label": "mapping(address => mapping(uint256 => uint256))",
            "numberOfBytes": "32",
            "value": "t_mapping(t_uint256,t_uint256)"
          },
          "t_mapping(t_uint256,t_bool)": {
            "encoding": "mapping",
            "key": "t_uint256",
            "label": "mapping(uint256 => bool)",
            "numberOfBytes": "32",
            "value": "t_bool"
          },
          "t_mapping(t_uint256,t_mapping(t_uint256,t_uint256))": {
            "encoding": "mapping",
            "key": "t_uint256",
            "label": "mapping(uint256 => mapping(uint256 => uint256))",
            "numberOfBytes": "32",
            "value": "t_mapping(t_uint256,t_uint256)"
          },
          "t_mapping(t_uint256,t_struct(Proposal)1684_storage)": {
            "encoding": "mapping",
            "key": "t_uint256",
            "label": "mapping(uint256 => struct GovernanceV2.Proposal)",
            "numberOfBytes": "32",
            "value": "t_struct(Proposal)1684_storage"
          },
          "t_mapping(t_uint256,t_uint256)": {
            "encoding": "mapping",
            "key": "t_uint256",
            "label": "mapping(uint256 => uint256)",
            "numberOfBytes": "32",
            "value": "t_uint256"
          },
          "t_string_storage": {
            "encoding": "bytes",
            "label": "string",
            "numberOfBytes": "32"
          },
          "t_struct(Proposal)1684_storage": {
            "encoding": "inplace",
            "label": "struct GovernanceV2.Proposal",
            "members": [
              {
                "astId": 1659,
                "contract": "contracts/GovernanceV2.sol:GovernanceV2",
                "label": "proposer",
                "offset": 0,
                "slot": "0",
                "type": "t_address"
              },
              {
                "astId": 1661,
                "contract": "contracts/GovernanceV2.sol:GovernanceV2",
                "label": "title",
                "offset": 0,
                "slot": "1",
                "type": "t_string_storage"
              },
              {
                "astId": 1663,
                "contract": "contracts/GovernanceV2.sol:GovernanceV2",
                "label": "description",
                "offset": 0,
                "slot": "2",
                "type": "t_string_storage"
              },
              {
                "astId": 1665,
                "contract": "contracts/GovernanceV2.sol:GovernanceV2",
                "label": "deposit",
                "offset": 0,
                "slot": "3",
                "type": "t_uint256"
              },
              {
                "astId": 1667,
                "contract": "contracts/GovernanceV2.sol:GovernanceV2",
                "label": "status",
                "offset": 0,
                "slot": "4",
                "type": "t_uint256"
              },
              {
                "astId": 1669,
                "contract": "contracts/GovernanceV2.sol:GovernanceV2",
                "label": "votesPassed",
                "offset": 0,
                "slot": "5",
                "type": "t_uint256"
              },
              {
                "astId": 1671,
                "contract": "contracts/GovernanceV2.sol:GovernanceV2",
                "label": "votesFail",
                "offset": 0,
                "slot": "6",
                "type": "t_uint256"
              },
              {
                "astId": 1673,
                "contract": "contracts/GovernanceV2.sol:GovernanceV2",
                "label": "votesVeto",
                "offset": 0,
                "slot": "7",
                "type": "t_uint256"
              },
              {
                "astId": 1675,
                "contract": "contracts/GovernanceV2.sol:GovernanceV2",
                "label": "totalStake",
                "offset": 0,
                "slot": "8",
                "type": "t_uint256"
              },
              {
                "astId": 1677,
                "contract": "contracts/GovernanceV2.sol:GovernanceV2",
                "label": "start",
                "offset": 0,
                "slot": "9",
                "type": "t_uint256"
              },
              {
                "astId": 1679,
                "contract": "contracts/GovernanceV2.sol:GovernanceV2",
                "label": "endDeposit",
                "offset": 0,
                "slot": "10",
                "type": "t_uint256"
              },
              {
                "astId": 1681,
                "contract": "contracts/GovernanceV2.sol:GovernanceV2",
                "label": "endVote",
                "offset": 0,
                "slot": "11",
                "type": "t_uint256"
              },
              {
                "astId": 1683,
                "contract": "contracts/GovernanceV2.sol:GovernanceV2",
                "label": "blockTime",
                "offset": 0,
                "slot": "12",
                "type": "t_uint256"
              }
            ],
            "numberOfBytes": "416"
          },
          "t_uint256": {
            "encoding": "inplace",
            "label": "uint256",
            "numberOfBytes": "32"
          }
        }
      }
    }
  }
}