{
  "contracts/GovernanceV2.sol": {
    "Stake": {
      "abi": [
        {
          "inputs": [
            {
              "internalType": "uint256",
              "name": "",
              "type": "uint256"
            }
          ],
          "name": "poolInfo",
          "outputs": [
            {
              "internalType": "contract IERC20",
              "name": "heToken",
              "type": "address"
            },
            {
              "internalType": "uint256",
              "name": "allocPoint",
              "type": "uint256"
            },
            {
              "internalType": "uint256",
              "name": "lastRewardBlock",
              "type": "uint256"
            },
            {
              "internalType": "uint256",
              "name": "accHePerShare",
              "type": "uint256"
            },
            {
              "internalType": "uint256",
              "name": "balancePool",
              "type": "uint256"
            }
          ],
          "stateMutability": "view",
          "type": "function"
        },
        {
          "inputs": [
            {
              "internalType": "uint256",
              "name": "",
              "type": "uint256"
            },
            {
              "internalType": "address",
              "name": "",
              "type": "address"
            }
          ],
          "name": "userInfo",
          "outputs": [
            {
              "internalType": "uint256",
              "name": "amount",
              "type": "uint256"
            },
            {
              "internalType": "uint256",
              "name": "rewardDebt",
              "type": "uint256"
            },
            {
              "internalType": "uint256",
              "name": "pendingDebt",
              "type": "uint256"
            }
          ],
          "stateMutability": "view",
          "type": "function"
        }
      ],
      "evm": {
        "bytecode": {
          "linkReferences": {},
          "object": "608060405234801561001057600080fd5b506101ac806100206000396000f3fe608060405234801561001057600080fd5b50600436106100365760003560e01c80631526fe271461003b57806393f1a40b14610085575b600080fd5b61004e610049366004610121565b6100d6565b604080516001600160a01b0390961686526020860194909452928401919091526060830152608082015260a0015b60405180910390f35b6100bb61009336600461013a565b6001602081815260009384526040808520909152918352912080549181015460029091015483565b6040805193845260208401929092529082015260600161007c565b600081815481106100e657600080fd5b6000918252602090912060059091020180546001820154600283015460038401546004909401546001600160a01b0390931694509092909185565b60006020828403121561013357600080fd5b5035919050565b6000806040838503121561014d57600080fd5b8235915060208301356001600160a01b038116811461016b57600080fd5b80915050925092905056fea2646970667358221220516e1c2ba72c9eebbfd448dd3bf0e5c725d83225c1ebcfc5203428bfd87ec91964736f6c634300080e0033",
          "opcodes": "PUSH1 0x80 PUSH1 0x40 MSTORE CALLVALUE DUP1 ISZERO PUSH2 0x10 JUMPI PUSH1 0x0 DUP1 REVERT JUMPDEST POP PUSH2 0x1AC DUP1 PUSH2 0x20 PUSH1 0x0 CODECOPY PUSH1 0x0 RETURN INVALID PUSH1 0x80 PUSH1 0x40 MSTORE CALLVALUE DUP1 ISZERO PUSH2 0x10 JUMPI PUSH1 0x0 DUP1 REVERT JUMPDEST POP PUSH1 0x4 CALLDATASIZE LT PUSH2 0x36 JUMPI PUSH1 0x0 CALLDATALOAD PUSH1 0xE0 SHR DUP1 PUSH4 0x1526FE27 EQ PUSH2 0x3B JUMPI DUP1 PUSH4 0x93F1A40B EQ PUSH2 0x85 JUMPI JUMPDEST PUSH1 0x0 DUP1 REVERT JUMPDEST PUSH2 0x4E PUSH2 0x49 CALLDATASIZE PUSH1 0x4 PUSH2 0x121 JUMP JUMPDEST PUSH2 0xD6 JUMP JUMPDEST PUSH1 0x40 DUP1 MLOAD PUSH1 0x1 PUSH1 0x1 PUSH1 0xA0 SHL SUB SWAP1 SWAP7 AND DUP7 MSTORE PUSH1 0x20 DUP7 ADD SWAP5 SWAP1 SWAP5 MSTORE SWAP3 DUP5 ADD SWAP2 SWAP1 SWAP2 MSTORE PUSH1 0x60 DUP4 ADD MSTORE PUSH1 0x80 DUP3 ADD MSTORE PUSH1 0xA0 ADD JUMPDEST PUSH1 0x40 MLOAD DUP1 SWAP2 SUB SWAP1 RETURN JUMPDEST PUSH2 0xBB PUSH2 0x93 CALLDATASIZE PUSH1 0x4 PUSH2 0x13A JUMP JUMPDEST PUSH1 0x1 PUSH1 0x20 DUP2 DUP2 MSTORE PUSH1 0x0 SWAP4 DUP5 MSTORE PUSH1 0x40 DUP1 DUP6 KECCAK256 SWAP1 SWAP2 MSTORE SWAP2 DUP4 MSTORE SWAP2 KECCAK256 DUP1 SLOAD SWAP2 DUP2 ADD SLOAD PUSH1 0x2 SWAP1 SWAP2 ADD SLOAD DUP4 JUMP JUMPDEST PUSH1 0x40 DUP1 MLOAD SWAP4 DUP5 MSTORE PUSH1 0x20 DUP5 ADD SWAP3 SWAP1 SWAP3 MSTORE SWAP1 DUP3 ADD MSTORE PUSH1 0x60 ADD PUSH2 0x7C JUMP JUMPDEST PUSH1 0x0 DUP2 DUP2 SLOAD DUP2 LT PUSH2 0xE6 JUMPI PUSH1 0x0 DUP1 REVERT JUMPDEST PUSH1 0x0 SWAP2 DUP3 MSTORE PUSH1 0x20 SWAP1 SWAP2 KECCAK256 PUSH1 0x5 SWAP1 SWAP2 MUL ADD DUP1 SLOAD PUSH1 0x1 DUP3 ADD SLOAD PUSH1 0x2 DUP4 ADD SLOAD PUSH1 0x3 DUP5 ADD SLOAD PUSH1 0x4 SWAP1 SWAP5 ADD SLOAD PUSH1 0x1 PUSH1 0x1 PUSH1 0xA0 SHL SUB SWAP1 SWAP4 AND SWAP5 POP SWAP1 SWAP3 SWAP1 SWAP2 DUP6 JUMP JUMPDEST PUSH1 0x0 PUSH1 0x20 DUP3 DUP5 SUB SLT ISZERO PUSH2 0x133 JUMPI PUSH1 0x0 DUP1 REVERT JUMPDEST POP CALLDATALOAD SWAP2 SWAP1 POP JUMP JUMPDEST PUSH1 0x0 DUP1 PUSH1 0x40 DUP4 DUP6 SUB SLT ISZERO PUSH2 0x14D JUMPI PUSH1 0x0 DUP1 REVERT JUMPDEST DUP3 CALLDATALOAD SWAP2 POP PUSH1 0x20 DUP4 ADD CALLDATALOAD PUSH1 0x1 PUSH1 0x1 PUSH1 0xA0 SHL SUB DUP2 AND DUP2 EQ PUSH2 0x16B JUMPI PUSH1 0x0 DUP1 REVERT JUMPDEST DUP1 SWAP2 POP POP SWAP3 POP SWAP3 SWAP1 POP JUMP INVALID LOG2 PUSH5 0x6970667358 0x22 SLT KECCAK256 MLOAD PUSH15 0x1C2BA72C9EEBBFD448DD3BF0E5C725 0xD8 ORIGIN 0x25 0xC1 0xEB 0xCF 0xC5 KECCAK256 CALLVALUE 0x28 0xBF 0xD8 PUSH31 0xC91964736F6C634300080E0033000000000000000000000000000000000000 "
        },
        "methodIdentifiers": {
          "poolInfo(uint256)": "1526fe27",
          "userInfo(uint256,address)": "93f1a40b"
        }
      },
      "storageLayout": {
        "storage": [
          {
            "astId": 1583,
            "contract": "contracts/GovernanceV2.sol:Stake",
            "label": "poolInfo",
            "offset": 0,
            "slot": "0",
            "type": "t_array(t_struct(PoolInfo)1579_storage)dyn_storage"
          },
          {
            "astId": 1590,
            "contract": "contracts/GovernanceV2.sol:Stake",
            "label": "userInfo",
            "offset": 0,
            "slot": "1",
            "type": "t_mapping(t_uint256,t_mapping(t_address,t_struct(UserInfo)1567_storage))"
          }
        ],
        "types": {
          "t_address": {
            "encoding": "inplace",
            "label": "address",
            "numberOfBytes": "20"
          },
          "t_array(t_struct(PoolInfo)1579_storage)dyn_storage": {
            "base": "t_struct(PoolInfo)1579_storage",
            "encoding": "dynamic_array",
            "label": "struct Stake.PoolInfo[]",
            "numberOfBytes": "32"
          },
          "t_contract(IERC20)182": {
            "encoding": "inplace",
            "label": "contract IERC20",
            "numberOfBytes": "20"
          },
          "t_mapping(t_address,t_struct(UserInfo)1567_storage)": {
            "encoding": "mapping",
            "key": "t_address",
            "label": "mapping(address => struct Stake.UserInfo)",
            "numberOfBytes": "32",
            "value": "t_struct(UserInfo)1567_storage"
          },
          "t_mapping(t_uint256,t_mapping(t_address,t_struct(UserInfo)1567_storage))": {
            "encoding": "mapping",
            "key": "t_uint256",
            "label": "mapping(uint256 => mapping(address => struct Stake.UserInfo))",
            "numberOfBytes": "32",
            "value": "t_mapping(t_address,t_struct(UserInfo)1567_storage)"
          },
          "t_struct(PoolInfo)1579_storage": {
            "encoding": "inplace",
            "label": "struct Stake.PoolInfo",
            "members": [
              {
                "astId": 1570,
                "contract": "contracts/GovernanceV2.sol:Stake",
                "label": "heToken",
                "offset": 0,
                "slot": "0",
                "type": "t_contract(IERC20)182"
              },
              {
                "astId": 1572,
                "contract": "contracts/GovernanceV2.sol:Stake",
                "label": "allocPoint",
                "offset": 0,
                "slot": "1",
                "type": "t_uint256"
              },
              {
                "astId": 1574,
                "contract": "contracts/GovernanceV2.sol:Stake",
                "label": "lastRewardBlock",
                "offset": 0,
                "slot": "2",
                "type": "t_uint256"
              },
              {
                "astId": 1576,
                "contract": "contracts/GovernanceV2.sol:Stake",
                "label": "accHePerShare",
                "offset": 0,
                "slot": "3",
                "type": "t_uint256"
              },
              {
                "astId": 1578,
                "contract": "contracts/GovernanceV2.sol:Stake",
                "label": "balancePool",
                "offset": 0,
                "slot": "4",
                "type": "t_uint256"
              }
            ],
            "numberOfBytes": "160"
          },
          "t_struct(UserInfo)1567_storage": {
            "encoding": "inplace",
            "label": "struct Stake.UserInfo",
            "members": [
              {
                "astId": 1562,
                "contract": "contracts/GovernanceV2.sol:Stake",
                "label": "amount",
                "offset": 0,
                "slot": "0",
                "type": "t_uint256"
              },
              {
                "astId": 1564,
                "contract": "contracts/GovernanceV2.sol:Stake",
                "label": "rewardDebt",
                "offset": 0,
                "slot": "1",
                "type": "t_uint256"
              },
              {
                "astId": 1566,
                "contract": "contracts/GovernanceV2.sol:Stake",
                "label": "pendingDebt",
                "offset": 0,
                "slot": "2",
                "type": "t_uint256"
              }
            ],
            "numberOfBytes": "96"
          },
          "t_uint256": {
            "encoding": "inplace",
            "label": "uint256",
            "numberOfBytes": "32"
          }
        }
      }
    }
  }
}