{
  "_format": "hh-sol-artifact-1",
  "contractName": "Admin",
  "sourceName": "contracts/Admin.sol",
  "abi": [
    {
      "inputs": [
        {
          "internalType": "uint256",
          "name": "_initialProposal",
          "type": "uint256"
        },
        {
          "internalType": "uint256",
          "name": "_minDeposit",
          "type": "uint256"
        },
        {
          "internalType": "uint256",
          "name": "_durationDeposit",
          "type": "uint256"
        },
        {
          "internalType": "uint256",
          "name": "_durationVote",
          "type": "uint256"
        },
        {
          "internalType": "uint256",
          "name": "_quorum",
          "type": "uint256"
        },
        {
          "internalType": "uint256",
          "name": "_thresholdVeto",
          "type": "uint256"
        },
        {
          "internalType": "uint256",
          "name": "_thresholdPassed",
          "type": "uint256"
        }
      ],
      "stateMutability": "nonpayable",
      "type": "constructor"
    },
    {
      "anonymous": false,
      "inputs": [
        {
          "indexed": true,
          "internalType": "address",
          "name": "previousOwner",
          "type": "address"
        },
        {
          "indexed": true,
          "internalType": "address",
          "name": "newOwner",
          "type": "address"
        }
      ],
      "name": "OwnershipTransferred",
      "type": "event"
    },
    {
      "anonymous": false,
      "inputs": [
        {
          "indexed": false,
          "internalType": "address",
          "name": "admin",
          "type": "address"
        },
        {
          "indexed": false,
          "internalType": "uint256",
          "name": "blockTime",
          "type": "uint256"
        },
        {
          "indexed": false,
          "internalType": "bool",
          "name": "status",
          "type": "bool"
        }
      ],
      "name": "newAdmin",
      "type": "event"
    },
    {
      "anonymous": false,
      "inputs": [
        {
          "indexed": false,
          "internalType": "address",
          "name": "admin",
          "type": "address"
        },
        {
          "indexed": false,
          "internalType": "uint256",
          "name": "duration",
          "type": "uint256"
        },
        {
          "indexed": false,
          "internalType": "uint256",
          "name": "blockTime",
          "type": "uint256"
        }
      ],
      "name": "newDurationDeposit",
      "type": "event"
    },
    {
      "anonymous": false,
      "inputs": [
        {
          "indexed": false,
          "internalType": "address",
          "name": "admin",
          "type": "address"
        },
        {
          "indexed": false,
          "internalType": "uint256",
          "name": "duration",
          "type": "uint256"
        },
        {
          "indexed": false,
          "internalType": "uint256",
          "name": "blockTime",
          "type": "uint256"
        }
      ],
      "name": "newDurationVote",
      "type": "event"
    },
    {
      "anonymous": false,
      "inputs": [
        {
          "indexed": false,
          "internalType": "address",
          "name": "admin",
          "type": "address"
        },
        {
          "indexed": false,
          "internalType": "uint256",
          "name": "amount",
          "type": "uint256"
        },
        {
          "indexed": false,
          "internalType": "uint256",
          "name": "blockTime",
          "type": "uint256"
        }
      ],
      "name": "newInitialProposal",
      "type": "event"
    },
    {
      "anonymous": false,
      "inputs": [
        {
          "indexed": false,
          "internalType": "address",
          "name": "admin",
          "type": "address"
        },
        {
          "indexed": false,
          "internalType": "uint256",
          "name": "amount",
          "type": "uint256"
        },
        {
          "indexed": false,
          "internalType": "uint256",
          "name": "blockTime",
          "type": "uint256"
        }
      ],
      "name": "newMinDeposit",
      "type": "event"
    },
    {
      "anonymous": false,
      "inputs": [
        {
          "indexed": false,
          "internalType": "address",
          "name": "admin",
          "type": "address"
        },
        {
          "indexed": false,
          "internalType": "uint256",
          "name": "quorum",
          "type": "uint256"
        },
        {
          "indexed": false,
          "internalType": "uint256",
          "name": "blockTime",
          "type": "uint256"
        }
      ],
      "name": "newQuorum",
      "type": "event"
    },
    {
      "anonymous": false,
      "inputs": [
        {
          "indexed": false,
          "internalType": "address",
          "name": "admin",
          "type": "address"
        },
        {
          "indexed": false,
          "internalType": "uint256",
          "name": "threshold",
          "type": "uint256"
        },
        {
          "indexed": false,
          "internalType": "uint256",
          "name": "blockTime",
          "type": "uint256"
        }
      ],
      "name": "newThresholdPassed",
      "type": "event"
    },
    {
      "anonymous": false,
      "inputs": [
        {
          "indexed": false,
          "internalType": "address",
          "name": "admin",
          "type": "address"
        },
        {
          "indexed": false,
          "internalType": "uint256",
          "name": "threshold",
          "type": "uint256"
        },
        {
          "indexed": false,
          "internalType": "uint256",
          "name": "blockTime",
          "type": "uint256"
        }
      ],
      "name": "newThresholdVeto",
      "type": "event"
    },
    {
      "anonymous": false,
      "inputs": [
        {
          "indexed": false,
          "internalType": "address",
          "name": "validator",
          "type": "address"
        },
        {
          "indexed": false,
          "internalType": "uint256",
          "name": "blockTime",
          "type": "uint256"
        },
        {
          "indexed": false,
          "internalType": "bool",
          "name": "status",
          "type": "bool"
        }
      ],
      "name": "newValidator",
      "type": "event"
    },
    {
      "inputs": [
        {
          "internalType": "address",
          "name": "",
          "type": "address"
        }
      ],
      "name": "admin",
      "outputs": [
        {
          "internalType": "bool",
          "name": "",
          "type": "bool"
        }
      ],
      "stateMutability": "view",
      "type": "function"
    },
    {
      "inputs": [],
      "name": "durationDeposit",
      "outputs": [
        {
          "internalType": "uint256",
          "name": "",
          "type": "uint256"
        }
      ],
      "stateMutability": "view",
      "type": "function"
    },
    {
      "inputs": [],
      "name": "durationVote",
      "outputs": [
        {
          "internalType": "uint256",
          "name": "",
          "type": "uint256"
        }
      ],
      "stateMutability": "view",
      "type": "function"
    },
    {
      "inputs": [
        {
          "internalType": "uint256",
          "name": "_durationDeposit",
          "type": "uint256"
        }
      ],
      "name": "editDurationDeposit",
      "outputs": [],
      "stateMutability": "nonpayable",
      "type": "function"
    },
    {
      "inputs": [
        {
          "internalType": "uint256",
          "name": "_durationVote",
          "type": "uint256"
        }
      ],
      "name": "editDurationVote",
      "outputs": [],
      "stateMutability": "nonpayable",
      "type": "function"
    },
    {
      "inputs": [
        {
          "internalType": "uint256",
          "name": "_initialProposal",
          "type": "uint256"
        }
      ],
      "name": "editInitialProposal",
      "outputs": [],
      "stateMutability": "nonpayable",
      "type": "function"
    },
    {
      "inputs": [
        {
          "internalType": "uint256",
          "name": "_minDeposit",
          "type": "uint256"
        }
      ],
      "name": "editMinDeposit",
      "outputs": [],
      "stateMutability": "nonpayable",
      "type": "function"
    },
    {
      "inputs": [
        {
          "internalType": "uint256",
          "name": "_quorum",
          "type": "uint256"
        }
      ],
      "name": "editQuorum",
      "outputs": [],
      "stateMutability": "nonpayable",
      "type": "function"
    },
    {
      "inputs": [
        {
          "internalType": "uint256",
          "name": "_passed",
          "type": "uint256"
        }
      ],
      "name": "editThresholdPassed",
      "outputs": [],
      "stateMutability": "nonpayable",
      "type": "function"
    },
    {
      "inputs": [
        {
          "internalType": "uint256",
          "name": "_veto",
          "type": "uint256"
        }
      ],
      "name": "editThresholdVeto",
      "outputs": [],
      "stateMutability": "nonpayable",
      "type": "function"
    },
    {
      "inputs": [],
      "name": "initialProposal",
      "outputs": [
        {
          "internalType": "uint256",
          "name": "",
          "type": "uint256"
        }
      ],
      "stateMutability": "view",
      "type": "function"
    },
    {
      "inputs": [],
      "name": "minDeposit",
      "outputs": [
        {
          "internalType": "uint256",
          "name": "",
          "type": "uint256"
        }
      ],
      "stateMutability": "view",
      "type": "function"
    },
    {
      "inputs": [],
      "name": "owner",
      "outputs": [
        {
          "internalType": "address",
          "name": "",
          "type": "address"
        }
      ],
      "stateMutability": "view",
      "type": "function"
    },
    {
      "inputs": [
        {
          "internalType": "address[]",
          "name": "_admin",
          "type": "address[]"
        }
      ],
      "name": "powerAdmin",
      "outputs": [],
      "stateMutability": "nonpayable",
      "type": "function"
    },
    {
      "inputs": [
        {
          "internalType": "address[]",
          "name": "_validator",
          "type": "address[]"
        }
      ],
      "name": "powerValidator",
      "outputs": [],
      "stateMutability": "nonpayable",
      "type": "function"
    },
    {
      "inputs": [],
      "name": "quorum",
      "outputs": [
        {
          "internalType": "uint256",
          "name": "",
          "type": "uint256"
        }
      ],
      "stateMutability": "view",
      "type": "function"
    },
    {
      "inputs": [],
      "name": "renounceOwnership",
      "outputs": [],
      "stateMutability": "nonpayable",
      "type": "function"
    },
    {
      "inputs": [],
      "name": "thresholdPassed",
      "outputs": [
        {
          "internalType": "uint256",
          "name": "",
          "type": "uint256"
        }
      ],
      "stateMutability": "view",
      "type": "function"
    },
    {
      "inputs": [],
      "name": "thresholdVeto",
      "outputs": [
        {
          "internalType": "uint256",
          "name": "",
          "type": "uint256"
        }
      ],
      "stateMutability": "view",
      "type": "function"
    },
    {
      "inputs": [
        {
          "internalType": "address",
          "name": "newOwner",
          "type": "address"
        }
      ],
      "name": "transferOwnership",
      "outputs": [],
      "stateMutability": "nonpayable",
      "type": "function"
    },
    {
      "inputs": [
        {
          "internalType": "address",
          "name": "",
          "type": "address"
        }
      ],
      "name": "validator",
      "outputs": [
        {
          "internalType": "bool",
          "name": "",
          "type": "bool"
        }
      ],
      "stateMutability": "view",
      "type": "function"
    }
  ],
  "bytecode": "0x608060405234801561001057600080fd5b50604051610d13380380610d1383398101604081905261002f916100ab565b6100383361005b565b6001969096556002949094556003929092556004556005556006556007556100ff565b600080546001600160a01b038381166001600160a01b0319831681178455604051919092169283917f8be0079c531659141344cd1fd0a4f28419497f9722a3daafe3b4186f6b6457e09190a35050565b600080600080600080600060e0888a0312156100c657600080fd5b5050855160208701516040880151606089015160808a015160a08b015160c0909b0151949c939b50919990985090965094509092509050565b610c058061010e6000396000f3fe608060405234801561001057600080fd5b50600436106101375760003560e01c80637c568f6a116100b8578063cc92639d1161007c578063cc92639d14610269578063d527e5bc14610272578063d78d26c714610285578063ed69caeb1461028e578063f2fde38b146102a1578063fd643bc2146102b457600080fd5b80637c568f6a146102165780638b26bff91461021f5780638da5cb5b146102325780639cbc5d951461024d5780639dabe5f21461026057600080fd5b806341b3d185116100ff57806341b3d185146101c657806341b90af4146101cf578063510e87d0146101e257806363a846f8146101eb578063715018a61461020e57600080fd5b8063050584c71461013c5780631703a018146101515780631d5592fe1461016d578063223b3b7a1461018057806327ede436146101b3575b600080fd5b61014f61014a3660046109e6565b6102c7565b005b61015a60055481565b6040519081526020015b60405180910390f35b61014f61017b366004610a31565b610343565b6101a361018e366004610af6565b60096020526000908152604090205460ff1681565b6040519015158152602001610164565b61014f6101c1366004610a31565b6104ce565b61015a60025481565b61014f6101dd3660046109e6565b610655565b61015a60045481565b6101a36101f9366004610af6565b60086020526000908152604090205460ff1681565b61014f6106bd565b61015a60015481565b61014f61022d3660046109e6565b6106f3565b6000546040516001600160a01b039091168152602001610164565b61014f61025b3660046109e6565b61075b565b61015a60035481565b61015a60065481565b61014f6102803660046109e6565b6107c3565b61015a60075481565b61014f61029c3660046109e6565b61082b565b61014f6102af366004610af6565b610893565b61014f6102c23660046109e6565b61092e565b3360009081526008602052604090205460ff166102ff5760405162461bcd60e51b81526004016102f690610b18565b60405180910390fd5b60048190556040517f150b13c3241261fb18489d675d278ab7418adf509bb87eb751c4973b76805f939061033890339084904290610b3c565b60405180910390a150565b6000546001600160a01b0316331461036d5760405162461bcd60e51b81526004016102f690610b5d565b60005b81518110156104ca576009600083838151811061038f5761038f610b92565b60200260200101516001600160a01b03166001600160a01b0316815260200190815260200160002060009054906101000a900460ff1615600960008484815181106103dc576103dc610b92565b60200260200101516001600160a01b03166001600160a01b0316815260200190815260200160002060006101000a81548160ff0219169083151502179055507fd6199ec46577060859008f25fac746382b09ab4de2e0d0129ca032400a156a2082828151811061044e5761044e610b92565b6020026020010151426009600086868151811061046d5761046d610b92565b6020908102919091018101516001600160a01b03908116835282820193909352604091820160002054825195909316855284019290925260ff1615159082015260600160405180910390a1806104c281610ba8565b915050610370565b5050565b6000546001600160a01b031633146104f85760405162461bcd60e51b81526004016102f690610b5d565b60005b81518110156104ca576008600083838151811061051a5761051a610b92565b60200260200101516001600160a01b03166001600160a01b0316815260200190815260200160002060009054906101000a900460ff16156008600084848151811061056757610567610b92565b60200260200101516001600160a01b03166001600160a01b0316815260200190815260200160002060006101000a81548160ff0219169083151502179055507f546b4a40eedc906ef1f3158a8308f9a144826e49085ecdf4fc62f94eb6bcbb738282815181106105d9576105d9610b92565b602002602001015142600960008686815181106105f8576105f8610b92565b6020908102919091018101516001600160a01b03908116835282820193909352604091820160002054825195909316855284019290925260ff1615159082015260600160405180910390a18061064d81610ba8565b9150506104fb565b3360009081526008602052604090205460ff166106845760405162461bcd60e51b81526004016102f690610b18565b60078190556040517fd0ec5747ddbcdefdafb542c9044c452ecb6a80c311172d2a0f23a672c07453589061033890339084904290610b3c565b6000546001600160a01b031633146106e75760405162461bcd60e51b81526004016102f690610b5d565b6106f16000610996565b565b3360009081526008602052604090205460ff166107225760405162461bcd60e51b81526004016102f690610b18565b60018190556040517f348ea656137b9a646ee4710808084bb27cde9b69f49625bb9defcd0099c26cdb9061033890339084904290610b3c565b3360009081526008602052604090205460ff1661078a5760405162461bcd60e51b81526004016102f690610b18565b60068190556040517f523e107819d8d7e488e3f49d9127abf47e8dbea6044e6a36413877a9b0f69b639061033890339084904290610b3c565b3360009081526008602052604090205460ff166107f25760405162461bcd60e51b81526004016102f690610b18565b60038190556040517f15bb72481b346ab33c30b93a8fc381bdcd2c3c6758bd08ebd007e9676f3fd1899061033890339084904290610b3c565b3360009081526008602052604090205460ff1661085a5760405162461bcd60e51b81526004016102f690610b18565b60058190556040517fe57c3259c2139b60960087ad611dc7abf0d0d9b5258b03fc8f8a89a5af7188a19061033890339084904290610b3c565b6000546001600160a01b031633146108bd5760405162461bcd60e51b81526004016102f690610b5d565b6001600160a01b0381166109225760405162461bcd60e51b815260206004820152602660248201527f4f776e61626c653a206e6577206f776e657220697320746865207a65726f206160448201526564647265737360d01b60648201526084016102f6565b61092b81610996565b50565b3360009081526008602052604090205460ff1661095d5760405162461bcd60e51b81526004016102f690610b18565b60028190556040517f2e1898adb5e93e50aefb6c023d7e2c20ef8918d8090f99bd6524187d9dab3fa39061033890339084904290610b3c565b600080546001600160a01b038381166001600160a01b0319831681178455604051919092169283917f8be0079c531659141344cd1fd0a4f28419497f9722a3daafe3b4186f6b6457e09190a35050565b6000602082840312156109f857600080fd5b5035919050565b634e487b7160e01b600052604160045260246000fd5b80356001600160a01b0381168114610a2c57600080fd5b919050565b60006020808385031215610a4457600080fd5b823567ffffffffffffffff80821115610a5c57600080fd5b818501915085601f830112610a7057600080fd5b813581811115610a8257610a826109ff565b8060051b604051601f19603f83011681018181108582111715610aa757610aa76109ff565b604052918252848201925083810185019188831115610ac557600080fd5b938501935b82851015610aea57610adb85610a15565b84529385019392850192610aca565b98975050505050505050565b600060208284031215610b0857600080fd5b610b1182610a15565b9392505050565b6020808252600a908201526927b7363c9020b236b4b760b11b604082015260600190565b6001600160a01b039390931683526020830191909152604082015260600190565b6020808252818101527f4f776e61626c653a2063616c6c6572206973206e6f7420746865206f776e6572604082015260600190565b634e487b7160e01b600052603260045260246000fd5b600060018201610bc857634e487b7160e01b600052601160045260246000fd5b506001019056fea2646970667358221220ece82c5249a729c49d26c8fd6d8b19cb68dd45739d54d082fd2b39b4624b152e64736f6c634300080e0033",
  "linkReferences": {},
  "deployedLinkReferences": {}
}